:100000000C94C8000C94F0000C94F0000C94F000D8
:100010000C94F0000C94F0000C94F0000C94F000A0
:100020000C94F0000C94F0000C944B050C94BD055E
:100030000C94F0000C94F0000C94F0000C94F00080
:100040000C94F0000C94F0000C94F0000C94F00070
:100050000C94F0000C94F0000C94F0000C94430904
:100060000C94F0000C94EC080C94C6080C94F0006E
:100070000C94F0000C94F0000C94F0000C94F00040
:100080000C94F0000C94F0000C94F0000C94F00030
:100090000C94F0000C94F0000C94F0000C94F00020
:1000A0000C94F0000C94F0000C94F00007117E11F9
:1000B00048113011730E730E0111730E0111730E7E
:1000C000011101110111730E01110111A512A812E4
:1000D000AB12AE12B112B412B712BA128D12901244
:1000E0009312961299129C129F12A212E312E61218
:1000F000E912EC12EF12F212F512F812CB12CE1234
:10010000D112D412D712DA12DD12E012080B00025B
:10011000020201000904000001020200000524009F
:100120001001052401010104240206052406000132
:100130000705810310004009040100020A000000C5
:100140000705020240000007058302400000040387
:10015000090441726475696E6F204C4C4300417212
:100160006475696E6F2059756E00120100020000FF
:1001700000404123418000010102030112010002FD
:10018000EF02014041234180000101020301F41309
:1001900011241FBECFEFDAE0DEBFCDBF24E0AEE317
:1001A000B2E001C01D92AF3FB207E1F712E0A0E05C
:1001B000B1E0E2E1FFE202C005900D92AE33B1077B
:1001C000D9F710E0C8ECD0E004C02197FE010E94EE
:1001D000A614C73CD107C9F70E94350B0C948717AA
:1001E0000C940000FC0180914202811103C08FEF4A
:1001F0009FEF08959FB7F89482E08093E9002091E3
:10020000F20030E01216130614F421E030E021155C
:10021000310559F0289884E6809341028091F100DD
:1002200080838091F200882319F09FBFC90108954F
:100230008BE68093E800F9CFCF93DF931F92CDB781
:10024000DEB76983DC01ED91FC910280F381E02D42
:1002500041E050E0BE016F5F7F4F09950F90DF9145
:10026000CF91089583E08093E9008091F200882384
:1002700019F08AE38093E8000895CF93DF931F92EB
:10028000CDB7DEB7FC018485958597FD05C02FEFBE
:100290003FEF358724870BC0CE0101960E94F20004
:1002A000019719F4898190E002C08FEF9FEF0F90C2
:1002B000DF91CF9108950F931F93CF93DF931F92F8
:1002C000CDB7DEB78C01FC018485958597FF0EC004
:1002D000CE0101960E94F200019719F4298130E0C5
:1002E00002C02FEF3FEFF80135872487F80184859E
:1002F00095850F90DF91CF911F910F910895FC018B
:100300008485958597FD0BC09FB7F89482E0809314
:10031000E9008091F2009FBF90E0019608959FB799
:10032000F89482E08093E9008091F2009FBF90E012
:100330000895EF92FF921F93CF93DF9300D01F9207
:10034000CDB7DEB71A82198220E12B837C0110E041
:10035000F70181917F0141E0811101C040E0612FEF
:10036000CE0101960E942A0A1F5F103189F7698128
:100370007A818B810F900F900F90DF91CF911F9119
:10038000FF90EF9008950E94C316CF92DF92EF92F4
:10039000FF920F931F93CF93DF931F92CDB7DEB7DA
:1003A0000E94161724E0C22ED12CE12CF12CA701BB
:1003B00096010E942417CB0134E0880F991F3A95CB
:1003C000E1F78A529E4F0E9499016093DA0270937E
:1003D000DB028093DC020E941617A70196010E949F
:1003E0002417CB0144E0880F991F4A95E1F78A56FC
:1003F0009E4F0E9499016093DD027093DE0280930C
:10040000DF020E941617A70196010E94241780E1BF
:10041000689F80011124C12CD12CF601E00FF11F3F
:10042000EA5AFE4F2081FC2C41E0213009F040E0E7
:100430006F2D80EE92E029830E942A0A41E02981F3
:10044000223009F040E06F2D83EE92E00E942A0AEC
:100450008FEFC81AD80A80E1C816D104F1F60F90C0
:10046000DF91CF911F910F91FF90EF90DF90CF9090
:100470000895CF93DF93CDB7DEB769970FB6F894A1
:10048000DEBF0FBECDBF60E070E080E89EE30E945B
:10049000480A6093E6027093E7028093E80260E006
:1004A00070E080E89EE30E94480A6093E90270933E
:1004B000EA028093EB0260E070E080E89EE30E9435
:1004C000480A6093EC027093ED028093EE0280E4A0
:1004D000898F40E050E060E07FE3CE0141960E94CA
:1004E000950A89E0FE017196AFEEB2E001900D929F
:1004F0008A95E1F7FE01319680E1DF011D928A9530
:10050000E9F791E09D839C879E87CF010E94990126
:100510006093F8027093F9028093FA0269960FB61D
:10052000F894DEBF0FBECDBFDF91CF9108954F92FB
:100530005F926F927F928F929F92AF92BF92DF9263
:10054000EF92FF920F931F93CF93DF93CDB7DEB758
:1005500029970FB6F894DEBF0FBECDBF00E010E0C4
:1005600037E0832E912CA12CB12C43E0442E512C4A
:10057000612C712C5CE0D52E8091C00290E00817B0
:100580001907C4F580915702909158028330910564
:1005900040F4880F991FFC01E05BFE4FE080F18082
:1005A00002C0E12CF12C0E941617A50194010E94B3
:1005B0002417F701E60FF71FE080F09053020E9426
:1005C0001617A30192010E942417F801E055FD4F70
:1005D000209155022E0DAB01BC014150510961091A
:1005E00071094F0D822F4D9D800D112480830F5F67
:1005F0001F4FC2CF4091D3025091D4026091D502D7
:100600007091D60281EC92E00E94950A40E050E0A1
:1006100060E87EE38AEC92E00E94950A80E4898794
:1006200040E050E060E07FE3CE0101960E94950A31
:1006300089E0FE013196A7EAB2E001900D928A9519
:10064000E1F729960FB6F894DEBF0FBECDBFDF915C
:10065000CF911F910F91FF90EF90DF90BF90AF90DF
:100660009F908F907F906F905F904F900895EF9242
:10067000FF921F93CF93DF931F92CDB7DEB77C011C
:10068000162F2150203108F04EC080E8E816F10402
:100690000CF449C0A1EEEA16F104ACF58091FC031C
:1006A0009091FD03DC01ED91FC916E2D622B019088
:1006B000F081E02D498309958091FC039091FD0321
:1006C000DC01ED91FC91612F6F770190F081E02DBD
:1006D0000995E894E4F84981B0ECEB16F10419F1BE
:1006E0008091FC039091FD03DC01ED91FC91642F5E
:1006F0006F770190F081E02D0F90DF91CF911F91E6
:10070000FF90EF900994C701885F9109089758F40A
:10071000B7018CEF93E00F90DF91CF911F91FF9085
:10072000EF900C948D090F90DF91CF911F91FF9066
:10073000EF900895CF92DF92EF92FF920E941E09F0
:100740006B017C010E941E09DC01CB018C199D0903
:10075000AE09BF09883E9340A105B10598F3FF900B
:10076000EF90DF90CF9008958F929F92AF92BF92BB
:10077000CF92DF92EF92FF920F931F93CF93DF936D
:100780005C016B018A0180910801882309F459C03A
:1007900080914202882309F454C08091400280FF76
:1007A00005C08091E00082608093E000E8018AEF5C
:1007B000F82E93E0E92E2FE3822E3AE3932E209732
:1007C000C9F18FB7F894E092E9009091E80095FFA5
:1007D00006C09091F200282D291B922F01C090E0B5
:1007E0008FBF911106C0FA94FF2059F10E949A031D
:1007F000E6CF292F30E0C217D3070CF49C2F8FB718
:10080000F894E092E9002091E80025FF11C0292F1B
:1008100030E0C21BD30BF601915020F04191409380
:10082000F100FACFC20ED31E9091E80095FF13C0DD
:100830008FBFC5CF5D9884E680933F0210161106E6
:1008400044F081E090E0F5019383828380E090E0C2
:1008500005C0C80103C09092E800EACFDF91CF91B4
:100860001F910F91FF90EF90DF90CF90BF90AF90CE
:100870009F908F9008958091970481110DC082E020
:100880008093930484E080939404109296041092D1
:10089000950481E08093970483E994E00895409162
:1008A000F4045091F5042091F2043091F3044217BE
:1008B0005307B4F49091E8009570E1F39091E8004B
:1008C00092FD19C08093F1008091F4049091F50499
:1008D00001968F739927892B19F48EEF8093E80086
:1008E0008091F4049091F50401969093F50480931F
:1008F000F40481E0089580E00895CF92DF92EF92B2
:10090000FF920F931F93CF93DF931F92CDB7DEB764
:10091000182F062FE42E862F880F8E5F99830E9452
:100920004F0483E00E944F04F12EC12E9981D92EED
:100930008C2D8F19801798F4F601E7FE02C0849180
:1009400001C080810E944F04182F80E00E944F0454
:100950008123FFEFCF1ADF0A8111EACF01C081E0C6
:100960000F90DF91CF911F910F91FF90EF90DF904B
:10097000CF900895DF92EF92FF920F931F93CF9342
:10098000DF93D82E8A017B01E40EF51EEB01CE1514
:10099000DF0571F0D7FE03C0FE01849101C088819C
:1009A0000E944F0421968111F2CF8FEF9FEF01C07B
:1009B000C801DF91CF911F910F91FF90EF90DF90D1
:1009C0000895615030F02091F100FC0120830196E0
:1009D000F8CF289884E6809341020895CF92DF9261
:1009E000EF92FF920F931F93CF93DF936C017A01E5
:1009F0008B01C0E0D0E0CE15DF0589F0D8016D9104
:100A00008D01D601ED91FC910190F081E02DC601A0
:100A10000995892B11F47E0102C02196ECCFC70104
:100A2000DF91CF911F910F91FF90EF90DF90CF90CA
:100A300008950F931F93CF93DF931F92CDB7DEB727
:100A400082E0898342E450E06CE071E080E80E943B
:100A5000BA040E943B04DC0112960D911C9113977D
:100A60000115110569F0D801ED91FC910280F38127
:100A7000E02DBE016F5F7F4FC801099597FF07C04A
:100A800089810F90DF91CF911F910F910895F80107
:100A900000851185E5CF1F920F920FB60F9211249A
:100AA0008F939F938091E1009091E100937F9093C9
:100AB000E10083FF0FC01092E90091E09093EB00FA
:100AC0001092EC0092E39093ED001092420298E0B5
:100AD0009093F00082FF20C093E09093E900909102
:100AE000F200992319F09AE39093E80090913F0265
:100AF000992339F090913F02915090933F029923AE
:100B000089F190914102992339F0909141029150DD
:100B100090934102992341F184FF10C08091E2003B
:100B20008E7E81608093E2008091E1008F7E8093D1
:100B3000E100809140028E7E806111C080FF16C06E
:100B40008091E2008E7E80618093E2008091E100DE
:100B50008E7E8093E100809140028E7E8160809342
:100B6000400204C05D9ACDCF289AD6CF9F918F9135
:100B70000F900FBE0F901F9018951F920F920FB6F7
:100B80000F921124CF92DF92EF92FF920F931F9357
:100B90002F933F934F935F936F937F938F939F9385
:100BA000AF93BF93EF93FF93CF93DF93CDB7DEB7B0
:100BB0006C97DEBFCDBF1092E9008091E80083FF03
:100BC000FAC168E0CE0145960E94E10482EF80936D
:100BD000E8008D8987FF05C09091E80090FFFCCF69
:100BE00003C09EEF9093E800982F907609F0C6C05E
:100BF0009E892F89188D91110CC0803829F480911D
:100C0000F0048093F10002C01092F1001092F10004
:100C100047C1422F50E0512B913051F4811140C116
:100C20004130510509F03CC18091F0048D7F0BC02B
:100C3000933061F4811134C14130510509F030C164
:100C40008091F00482608093F0042AC1953041F4D1
:100C50008091E80080FFFCCF20682093E30020C152
:100C6000963009F05FC0EB8CFC8C1092E90010927A
:100C7000F5041092F404123091F51092F3041092DE
:100C8000F2040E94190599E0BE016F5F7F4FDB01FE
:100C9000E92F1D92EA95E9F799831A8391E09E83E3
:100CA00090EA98879AEF99872091F4043091F5049F
:100CB000275F3F4F3C832B838D831092E900109276
:100CC000F5041092F404F092F304E092F20449E087
:100CD00050E080E00E94BA040E941905E1C0F09241
:100CE000F304E092F2040E943B04DC011296ED90C2
:100CF000FC901397E114F10409F4C0C0D701ED9101
:100D0000FC910480F581E02DBE016B5E7F4FC70131
:100D10000995009719F00CF0C3C0C6C0F701E08434
:100D2000F184E8CF973009F4BFC0983021F481E016
:100D30008093F100B5C0993009F0B2C0837009F01A
:100D4000B3C0E7E3F2E081E021E036E3908199234C
:100D500061F08093E9002093EB0091919093EC0077
:100D60003093ED008F5F873089F78EE78093EA003C
:100D70001092EA008F898093420292C08B8D9C8DE5
:100D80001092E9001092F5041092F4049093F30489
:100D90008093F204898D811156C08E899D89913A84
:100DA00059F4813209F080C047E050E061E071E021
:100DB00080E00E94BA0474C0913209F075C0833299
:100DC00089F4888D90E0982F88272F89822BA0E0C6
:100DD000B0E08093090190930A01A0930B01B093B6
:100DE0000C015EC0803269F48091E80082FFFCCF84
:100DF00067E081E091E00E94E1048BEF8093E800DE
:100E000006C0823209F04CC08F898093080180911E
:100E1000EF04882319F0EEEFFAE002C0E0E0F8E01A
:100E20008091010190910201A0910301B091040110
:100E3000803B9440A105B10509F088C0809108016C
:100E400080FFA0C083C00E943B04DC0112960D917C
:100E50001C9113970115110539F1D801ED91FC9101
:100E60000190F081E02DBE016B5E7F4FC8010995B6
:100E7000811116C0F80100851185ECCF1130C1F049
:100E8000133091F48F89882309F455C08230E9F436
:100E900040E86BE08EE591E00E947D04882321F01C
:100EA0008EEF8093E80087C081E28093EB0083C0DF
:100EB0008B8D9C8D089711F41093F1048091F104AF
:100EC000811136C06AE671E038C0813029F440E80B
:100ED0006BE082E591E0E0CF833031F70E943B0484
:100EE000DC011296ED90FC9013978E010F5F1F4F5F
:100EF0006801E114F10479F0D701ED91FC910680CD
:100F0000F781E02DB801C7010995080F111DF70100
:100F1000E084F184EECFD8011C92F601019000200C
:100F2000E9F73197BF016C197D0940E0C601B4CFE4
:100F30006CE771E002C06EE471E06115710509F4BF
:100F4000B3CFFB01449150E080E833CF0FB6F89463
:100F5000A895809160008861809360001092600085
:100F60000FBEA895EE3F2AE0F20739F08091FE0A05
:100F70009091FF0A9183808393CF1092FF0A109281
:100F8000FE0A8ECFEE3F8AE0F80731F08081918132
:100F90009093FF0A8093FE0A87E797E79183808307
:100FA0009BE088E10FB6F894A895809360000FBE8F
:100FB0009093600075CF6C960FB6F894DEBF0FBEAD
:100FC000CDBFDF91CF91FF91EF91BF91AF919F91F5
:100FD0008F917F916F915F914F913F912F911F91D1
:100FE0000F91FF90EF90DF90CF900F900FBE0F907A
:100FF0001F901895FC01918D828D981761F0828D5C
:10100000DF01A80FB11D5D968C91928D9F5F9F733C
:10101000928F90E008958FEF9FEF0895FC01918DDE
:10102000828D981731F0828DE80FF11D858D90E04B
:1010300008958FEF9FEF0895FC01918D228D892FE8
:1010400090E0805C9F4F821B91098F7399270895D0
:101050008BE393E00E941C0821E0892B09F420E037
:10106000822F0895FC01848DDF01A80FB11DA35AC2
:10107000BF4F2C91848D90E001968F739927848FB8
:10108000A689B7892C93A089B1898C9180648C93AF
:10109000938D848D981306C00288F389E02D80819A
:1010A0008F7D80830895EF92FF920F931F93CF93CC
:1010B000DF93EC0181E0888F9B8D8C8D981305C0A8
:1010C000E889F989808185FD24C0F62E0B8D10E01A
:1010D0000F5F1F4F0F731127E02E8C8DE8120CC08D
:1010E0000FB607FCFACFE889F989808185FFF5CF33
:1010F000CE010E943208F1CF8B8DFE01E80FF11D69
:10110000E35AFF4FF0820B8FEA89FB89808180626E
:1011100007C0EE89FF896083E889F989808180644E
:10112000808381E090E0DF91CF911F910F91FF903C
:10113000EF900895CF93DF93EC01888D8823C9F059
:10114000EA89FB89808185FD05C0A889B9898C91D0
:1011500086FD0FC00FB607FCF5CF808185FFF2CF6B
:10116000A889B9898C9185FFEDCFCE010E94320804
:10117000E7CFDF91CF91089580E090E0892B29F0AF
:101180000E94280881110C94000008951F920F926C
:101190000FB60F9211242F933F934F935F936F934A
:1011A0007F938F939F93AF93BF93EF93FF938BE3C3
:1011B00093E00E943208FF91EF91BF91AF919F9110
:1011C0008F917F916F915F914F913F912F910F90F0
:1011D0000FBE0F901F9018951F920F920FB60F928F
:1011E00011242F938F939F93EF93FF93E0914B03E1
:1011F000F0914C038081E0915103F091520382FD04
:1012000012C09081809154038F5F8F73209155039A
:10121000821751F0E0915403F0E0E55CFC4F958FAC
:101220008093540301C08081FF91EF919F918F9132
:101230002F910F900FBE0F901F9018953FB7F89405
:101240008091FB049091FC04A091FD04B091FE04F8
:1012500026B5A89B05C02F3F19F00196A11DB11D11
:101260003FBFBA2FA92F982F8827820F911DA11D4C
:10127000B11DBC01CD0142E0660F771F881F991F89
:101280004A95D1F708951F920F920FB60F9211242D
:101290002F933F938F939F93AF93BF938091F704C6
:1012A0009091F804A091F904B091FA043091F604F9
:1012B00023E0230F2D3720F40196A11DB11D05C099
:1012C00026E8230F0296A11DB11D2093F6048093FA
:1012D000F7049093F804A093F904B093FA04809172
:1012E000FB049091FC04A091FD04B091FE040196D2
:1012F000A11DB11D8093FB049093FC04A093FD04F9
:10130000B093FE04BF91AF919F918F913F912F9128
:101310000F900FBE0F901F9018956D3F71053CF414
:101320006A3F710554F4683F710589F406C09B015A
:101330002E5F31092230310550F4DC018D919C91F2
:10134000DC01ED91FC910190F081E02D099408956C
:1013500087FF0DC09CE0980F923048F0982F9B7F3C
:10136000993F29F0803F08F4807F90E0089580E065
:1013700090E008959C018F7C8038910561F0203DBC
:10138000310549F081E0203E310539F0203C31053E
:1013900021F080E0089581E008950895FF920F9371
:1013A0001F93CF93DF93EC01F62E8C01005F1F4F4C
:1013B000FE01DF016191662341F01C922F2D40E078
:1013C00080E890E00E943703F3CFE017F10789F738
:1013D000DF91CF911F910F91FF900895DF92EF92CF
:1013E000FF920F931F93CF93DF93182FD62E042FC6
:1013F000E901790180E1E80EF11CC901FC010196C7
:10140000208121130BC01082112359F0202F40E0BE
:10141000612F80E890E00E94370303C08E159F057E
:1014200069F7202F4D2D612F80E990E00E9437034E
:10143000FE0121968081811102C0108303C0CE1568
:10144000DF05B1F7DF91CF911F910F91FF90EF90E2
:10145000DF900895FC0180819181442359F041E09F
:1014600050E002C0440F551F6A95E2F79C01242BFF
:10147000352B0BC021E030E002C0220F331F6A95EC
:10148000E2F720953095282339233183208308956E
:101490008F929F92AF92BF92CF92DF92EF92FF9284
:1014A0001F93CF93DF9300D01F92CDB7DEB76B01B0
:1014B0007C011A82198280E18B8310E0812C84E008
:1014C000982EA12CB12C8B811817E8F40E941617C6
:1014D000A50194010E9424170E94A61520E030E087
:1014E00040E85AE30E945616A70196010E942D1566
:1014F000482F441F4427441F612FCE0101960E94AC
:101500002A0A1F5FE0CF69817A818B810F900F904B
:101510000F90DF91CF911F91FF90EF90DF90CF90D0
:10152000BF90AF909F908F9008952F923F924F92CF
:101530005F926F927F928F92CF92DF92EF920F9392
:101540001F93CF93DF9300D01F92CDB7DEB78C01EE
:1015500060E070E080E09FE30E94480A6B01E82EA3
:1015600060E070E080E09FE30E94480A3B01882E23
:1015700060E070E080E09FE30E94480A69837A831C
:101580008B830E94161720E034E040E050E00E9478
:1015900024170E94A61520E030E040E85AE30E949C
:1015A00056161B012C01F801D182C08220E030E0E8
:1015B00040E85EE30E942D1587FF06C0F801D38244
:1015C000C282D582C48236C020E030E040E05FE3D2
:1015D000C201B1010E942D1587FF06C0F801738278
:1015E0006282D582C4820FC020E030E040E25FE337
:1015F000C201B1010E942D1587FF08C0F801D382F6
:10160000C28275826482D782C68216C020E030E032
:1016100040E45FE3C201B1010E942D15F80173821D
:101620006282D582C48287FF05C089819A819783AF
:10163000868302C0778266820F900F900F90DF91B1
:10164000CF911F910F91EF90DF90CF908F907F906F
:101650006F905F904F903F902F900895DC01ED9137
:10166000FC910190F081E02D0994CF93DF93CDB7E9
:10167000DEB7C458D1090FB6F894DEBF0FBECDBF98
:10168000789484B5826084BD84B5816084BD85B55D
:10169000826085BD85B5816085BD80916E00816069
:1016A00080936E001092810080918100826080930F
:1016B0008100809181008160809381008091800011
:1016C000816080938000809191008260809391007E
:1016D0008091910081608093910080919000816061
:1016E000809390008091C10084608093C1008091BC
:1016F000C10082608093C1008091C10081608093AD
:10170000C1008091C30081608093C3008091C000BC
:1017100082608093C0008091C20081608093C2008B
:1017200080917A00846080937A0080917A00826050
:1017300080937A0080917A00816080937A00809112
:101740007A00806880937A00109242021092F0042E
:10175000109240028091D70081608093D70080EA88
:101760008093D80089B5806189BD89B5826089BDC3
:1017700009B400FEFDCF0E949A038091D8008F7CAF
:1017800080618093D8008091E000807F8093E000AA
:101790008091E1008E7E8093E1008DE08093E200F5
:1017A000559A209AEEEFFFE7859194918B3F9C4DDF
:1017B00019F481E08093EF04E091FC03F091FD03C4
:1017C000A089B18982E08C93A485B5851C92A685F9
:1017D000B7858FE38C93108EA489B58986E08C93AE
:1017E000A289B3898C9180618C93A289B3898C91F1
:1017F00088608C93A289B3898C9180688C930288CD
:10180000F389E02D80818F7D80831092FE031092FA
:1018100000041092FF031092070410920604109225
:101820000504109204048FEF9FEF909309048093B6
:10183000080490930B0480930A041092920410926F
:101840000F0410920E0410920D04109210041092C6
:10185000110480910C0481708260816080930C047B
:1018600010E41093AF0280E18093C0021093C9028C
:101870001093D2020E9439020E94C501C058DF4F66
:101880001883C058D04040E050E060E07FE3CE01D4
:1018900088589F4F0E94950A89E0FE01E858FF4F43
:1018A000DE01AE5BBF4F01900D928A95E1F7FE011C
:1018B0003196DF0194E280E18E0F9D938A13FDCF74
:1018C000DE015196CE01819624E22D93A817B90727
:1018D000E1F7CE01C1962BE22D93A817B907E1F7E6
:1018E000CE018F5B9F4F29E22D93A817B907E1F72F
:1018F00080E48C938AE4ADE5B2E001900D928A9584
:10190000E1F70E9497028DEC9CECACE4BFE380937E
:10191000D3029093D402A093D502B093D60283E071
:101920008093530285E080935402109256021092E5
:10193000550282E090E09093580280935702EBE1C9
:10194000F3E080E18E0F11928E13FDCF60E8C62E7A
:10195000D12C76E0272E312CE0E18E2E912CA12C7B
:10196000B12C0091FE03013108F0BFC18091FC034E
:101970009091FD03DC01ED91FC910480F581E02D57
:101980000995892B09F4B1C18091FC039091FD0365
:10199000DC01ED91FC910680F781E02D09957C0139
:1019A0008B7F893F09F4A1C120910604309107047F
:1019B0002115310509F0AEC0E09201041091FF033A
:1019C000812F0E94A8090E94BA09882361F0E7FCD0
:1019D0000AC010930104E092020481E090E0909329
:1019E00007048093060410910104812F0E94A80926
:1019F000813F910509F45FC074F5803B910509F4BE
:101A00005DC06CF48039910509F458C0803A9105A5
:101A100009F454C08038910509F0DAC04FC0803D08
:101A2000910509F448C02CF4803C910509F443C0A9
:101A3000CFC0803E910509F441C0803F910509F077
:101A4000C7C0D0920504C09204041092FF0320EF97
:101A50002093120439C0883F9105B9F044F4833FC4
:101A6000910549F15CF1863F910579F0B1C08A3F5B
:101A700091050CF4ADC08D3F91053CF09C012E5FAB
:101A800031092230310508F0A3C090930F048093F0
:101A90000E0410920D04109210041092110481E0B3
:101AA0008093920410920704109206041092050489
:101AB00010920404F2C022E030E002C023E030E0E3
:101AC0003093050420930404209106043091070408
:101AD00040910404509105044150510924173507E1
:101AE00008F4D4C090930F0480930E04812F8F705C
:101AF0008F5F80930D0480910204809310041092F4
:101B0000110410920704109206041092050410921A
:101B1000040421C0E7FE46C0C70199278D3F910507
:101B200054F48A3F91056CF4873F9105C1F0883FDA
:101B30009105C1F506C0AC014E5F51094230510517
:101B400088F590930F0480930E0410921004109265
:101B5000110410920D0481E0809392049EC0809144
:101B60001204803FA9F5C9010196F901E852FC4F22
:101B700047EF42AF20EF30E030930F0420930E0484
:101B8000809310049093110410920D0481E08093CF
:101B90009204109207041092060410920504109209
:101BA000040471C080910104F901E852FC4F803FA8
:101BB000D1F4E2AEE0900404F0900504C70101976F
:101BC0002817390708F462C010910104103F69F426
:101BD0001092070410920604109205041092040457
:101BE0001092FF0382C0E1A6E5CF812F0E94A809D1
:101BF0003C0190930F0480930E040E94BA0988233D
:101C000031F0812F8F708F5F80930D0402C010928E
:101C10000D048091020480931004B3E0EB16F104EC
:101C200019F48091030401C080E0809311041092A4
:101C3000070410920604109205041092040481E037
:101C400080939204E0EB6E167104D1F06CF420E9FD
:101C500062167104A9F080EA6816710489F090E8B0
:101C60006916710481F40CC0A0ED6A16710441F08C
:101C7000B0EE6B16710421F0E0EC6E16710419F4ED
:101C80001093FF030AC01092FF0307C02F5F3F4F5E
:101C9000309307042093060428C080910E0490918D
:101CA0000F048039910529F480911104882309F4E7
:101CB000A2C480910E0490910F049C012058310918
:101CC0002136310508F09CC420910D04201709F439
:101CD00097C4002309F494C410E040910C04342FFD
:101CE000317040FD54C211112DC380913E028823F2
:101CF00009F44AC26091590270915A0280915B02C4
:101D000090915C02A50194010E94241781E090E06B
:101D100002C0880F991F6A95E2F72091DA0230918C
:101D2000DB0282239323892B39F02BE033E04AE056
:101D30006FE384E20E94EE096091590270915A02A9
:101D400080915B0290915C02A50194010E9424178E
:101D500081E090E002C0880F991F6A95E2F7209118
:101D6000DD023091DE0282239323892B39F02BE0B0
:101D700033E04AE06FE386E20E94EE096091590287
:101D800070915A0280915B0290915C02A5019401CE
:101D90000E94241781E090E002C0880F991F6A9585
:101DA000E2F72091E3023091E40282239323892B0E
:101DB00039F02BE033E04AE06FE387E20E94EE095E
:101DC0006091590270915A0280915B0290915C027D
:101DD000A50194010E94241781E090E002C0880FC1
:101DE000991F6A95E2F72091E6023091E70282237B
:101DF0009323892B39F02BEF32E04CE06FE38DE237
:101E00000E94EE096091590270915A0280915B0222
:101E100090915C02A50194010E94241781E090E05A
:101E200002C0880F991F6A95E2F72091E90230916C
:101E3000EA0282239323892B39F02BEF32E04CE026
:101E40006FE380E30E94EE096091590270915A029B
:101E500080915B0290915C02A50194010E9424177D
:101E600081E090E002C0880F991F6A95E2F7209107
:101E7000EC023091ED0282239323892B39F02BEF72
:101E800032E04CE06FE385E20E94EE096091590276
:101E900070915A0280915B0290915C0229E0EFEE12
:101EA000F2E0DE01A159BF4F01900D922A95E1F7B2
:101EB0002091F70230E040E050E00E942417262FE6
:101EC0002F7081E090E002C0880F991F2A95E2F7F9
:101ED00062956F70FE01E159FF4FE60FF11DE60FAD
:101EE000F11D2081318182239323892B39F02BEF3F
:101EF00032E04CE06FE38BE20E94EE096091590200
:101F000070915A0280915B0290915C02A50194014C
:101F10000E94241781E090E002C0880F991F6A9503
:101F2000E2F72091F8023091F90282239323892B62
:101F300039F02BEF32E04CE06FE388E20E94EE09CB
:101F40004090590250905A0260905B0270905C027F
:101F50002091C00230E040E050E0C301B2010E9495
:101F60002417E62FF0E0E055FD4FE08089E0E7EA36
:101F7000F2E0DE01AC5ABF4F01900D928A95E1F775
:101F80002091AF0230E040E050E0C301B2010E9476
:101F90002417262F2F7081E090E002C0880F991F30
:101FA0002A95E2F762956F70FE01EC5AFF4FE60F3B
:101FB000F11DE60FF11D2081318182239323892BAE
:101FC00019F094E6F92E02C080E2F82E89E0E1ECE7
:101FD000F2E0DE01A35ABF4F01900D928A95E1F71E
:101FE0002091C90230E040E050E0C301B2010E94FC
:101FF0002417862F8F7001E010E0980102C0220F95
:10200000331F8A95E2F762956F70FE01E35AFF4F26
:10201000E60FF11DE60FF11D80819181822393234C
:10202000892BA9F189E0EAECF2E0DE01AA59BF4F61
:1020300001900D928A95E1F72091D20230E040E0C4
:1020400050E0C301B2010E942417862F8F7002C096
:10205000000F111F8A95E2F762956F70FE01EA5931
:10206000FF4FE60FF11DE60FF11D808191810823DE
:102070001923012B29F461E08BE293E00E94CE0941
:102080002BE233E041E06F2D8E2D0E94EE0960912E
:10209000590270915A0280915B0290915C0229E092
:1020A000EEE9F2E0DE01A55BBF4F01900D922A95AB
:1020B000E1F72091A60230E040E050E00E942417B2
:1020C000262F2F7081E090E002C0880F991F2A957B
:1020D000E2F762956F70FE01E55BFF4FE60FF11DC1
:1020E000E60FF11D2081318182239323892B71F129
:1020F00065E08BE193E00E94CE09609159027091F6
:102100005A0280915B0290915C0220E430E040E052
:1021100050E00E94241720919D0230E040E050E002
:102120000E942417E62FF0E0ED5BFD4F128D2BE1AE
:1021300033E045E060E2812F0E94EE092BE133E0BD
:1021400045E060E287E0810F0E94EE0910923E02B6
:102150008091590290915A02A0915B02B0915C0269
:10216000BC01CD016F5F7F4F8F4F9F4F20E73AEA51
:1021700043E050E00E9424176093590270935A0282
:1021800080935B0290935C020E94BC08EACB842F90
:102190008E7F09F4A8CD80910E0490910F04BC01AC
:1021A000605871096136710508F520910D042017FA
:1021B00019F031E0011130E0469550E04230510510
:1021C00041F04330510549F04130510509F08BCDC4
:1021D00006C0332309F487CD02C0311184CD40916C
:1021E0001104609110040E9437037DCDFC01E05F73
:1021F000F109E031F10508F076CDEA5AFF4F0C9471
:10220000A614BC018CEF93E00E948D096CCDE09088
:102210001104F12CFE2CEE2480911004E82AB1E880
:10222000EB16F10418F030E8E32EF12C612C712C40
:102230006E147F0409F457CD8091FC039091FD0347
:10224000DC01ED91FC91D301A852BC4F0190F081CB
:10225000E02DDA966C910995BFEF6B1A7B0AE8CFF7
:10226000009110048091FC039091FD03DC01ED913D
:10227000FC910190F081E02D63EF09950F77602FBD
:1022800070E08091FC039091FD030E942E0B2BCDFA
:10229000E0901104B0E8EB9E7001112480911004CD
:1022A000E82A8091FC039091FD03DC01ED91FC9103
:1022B0000190F081E02D62EF09958091FC039091EF
:1022C000FD03DC01ED91FC91B7016F777727019059
:1022D000F081E02D09958091FC039091FD03DC01D4
:1022E000ED91FC91B701660F672F661F770B719513
:1022F0006F7777270190F081E02D22C08091100444
:102300008770B0E18B9FC0011124009111040F7000
:10231000082B8091FC039091FD03DC01ED91FC9171
:102320000190F081E02D61EF09958091FC0390917F
:10233000FD03DC01ED91FC910190F081E02D602F17
:102340000995D1CC80910E0490910F04803B9105AA
:1023500051F14CF48038910509F40FC18039910591
:1023600009F4CCC0C2CC883F910569F08C3F91053F
:1023700009F0BBCC1092590210925A0210925B02E3
:1023800010925C02B2CC8091000190E00196B10104
:102390000E94921480930001892B09F0A6CC81E061
:1023A00080933E02A2CC80911004863109F49CC037
:1023B00030F4843179F1853109F48FC096CC8633BD
:1023C00008F493CC883308F492C08B3409F08DCC98
:1023D0006091110470E080E090E00E94A61520E07A
:1023E00030E04EEF52E40E9432152DEC3CEC4CE410
:1023F0005FE30E9456162DEC3CEC4CE45EE30E9439
:10240000C1146093D3027093D4028093D502909349
:10241000D6026BCC80911104811167CC00E010E0F2
:10242000F801EF5EFE4F7F012281822F90E0A0E055
:10243000B0E04180512C612C712C481659066A0677
:102440007B060CF03BC09C01AD01241935094609FF
:10245000570969F1CF57DF4F2883C158D040CE5775
:10246000DF4F3883C258D040CD57DF4F4883C35821
:10247000D040CC57DF4F5883C458D0400E94161725
:10248000CF57DF4F2881C158D040CE57DF4F38811A
:10249000C258D040CD57DF4F4881C358D040CC57A9
:1024A000DF4F5881C458D0400E94241703C060E019
:1024B00070E0CB01460E571E681E791E2AE0442D9F
:1024C000D7016C9180EB90E00E9437030D5F1F4FA6
:1024D0000A32110509F0A4CF08CC809111048111B2
:1024E00004CC0E94C50101CC0E943902FECB809130
:1024F00011048111FACB0E949702F7CBE0911004EE
:102500008E2F90E0FC01BC97E031F10508F0EDCB97
:10251000EA59FF4F81E00C94A61480934302E5CB67
:1025200080934402E2CB80934502DFCB8093460246
:10253000DCCB80934702D9CB80934802D6CB8093E3
:102540004902D3CB80934A02D0CB80934B02CDCBB0
:1025500080934C02CACB80934D02C7CB80934E022E
:10256000C4CB80934F02C1CB80935002BECB8093EB
:102570005102BBCB80935202B8CBE09110048E2F56
:1025800090E0FC01BC97E031F10508F0AECBEA58D1
:10259000FF4F0C94A61410924302A7CB1092440252
:1025A000A4CB10924502A1CB109246029ECB109272
:1025B00047029BCB1092480298CB1092490295CBD0
:1025C00010924A0292CB10924B028FCB10924C0287
:1025D0008CCB10924D0289CB10924E0286CB10927A
:1025E0004F0283CB1092500280CB109251027DCBD0
:1025F000109252027ACBD0920F04C0920E0459CBA3
:10260000813F9105B1F5E091E803F091E9030CC039
:102610008B3F91050CF0C7C0833F910509F0A4C022
:10262000E091EC03F091ED03309709F180911004F3
:1026300009951DC0813D91050CF454C0803E910563
:1026400009F060C0E091E403F091E503309779F080
:10265000609111046F7720E8629FB001112480918E
:1026600010048F77682B705280910D04099511E04A
:1026700034CB823F91050CF061C0803B9105B1F4F1
:10268000E091DE03F091DF0307C08038910579F710
:10269000E091D803F091D903309749F340911104A8
:1026A0006091100480910D040995E1CF813B910563
:1026B00084F48039910529F4E091DA03F091DB0389
:1026C000EBCF803A910509F7E091DC03F091DD034F
:1026D000E3CF803D910509F0ADCFE091E203F091A9
:1026E000E30307C0803C910511F6E091E003F0910F
:1026F000E103309709F4BBCF6091100480910D0481
:102700000995B5CF803F910509F0B1CFE091E6037F
:10271000F091E703309709F4AACF6091110470E0BB
:10272000762F662780911004682B6138710510F0B0
:1027300060E870E082E194E0099599CF8A3F9105C5
:1027400009F066CFE091F203F091F30308C0883FEF
:10275000910509F08CCFE091F003F091F1033097EF
:1027600009F485CF099583CF833F9105A4F4E091C7
:10277000EA03F091EB03309709F479CF80911104CB
:102780008F77A0E88A9FC0011124209110042F7731
:10279000822B09956CCF863F9105C9F6E091EE0337
:1027A000F091EF03DCCF8C3F910529F4E091F60323
:1027B000F091F703D4CF8C3F91052CF4E091F40312
:1027C000F091F503CCCF8E3F910529F4E091F80309
:1027D000F091F903C4CF8F3F910509F048CFE09104
:1027E000FA03F091FB03BBCFCF93DF93EFE9F4E063
:1027F0001382128248EE53E060E070E04483558318
:10280000668377838AE192E0918380838FEF9FEFE5
:1028100095878487ABE3B3E013961C921E921297C0
:1028200014964D935D936D937C9317972AE232E053
:1028300011963C932E932DEC30E01D963C932E93F5
:102840001C972CEC30E01F963C932E931E9728EC9F
:1028500030E051963C932E93509729EC30E05396FC
:102860003C932E9352972AEC30E055963C932E934E
:1028700054972EEC30E057963C932E9356975996EA
:102880001C9259975A961C925A975B961C925B978A
:102890005C961C925C97E8EDF3E0B5A3A4A316A2A6
:1028A00017A210A615A614A617A616A691AB80AB64
:1028B00093AB82AB83E080930C0415AA17AA16AAE7
:1028C00010AE11AE1092920480E8A2E1B4E0ED01E6
:1028D00019928A95E9F71182108213821282158269
:1028E0001482178216821186108613861286158628
:1028F000148617861686118A108A138A128A158AF8
:10290000148A178A168A118E108E138E128E158EC7
:10291000148E178E168E11A210A213A212A2DF918E
:10292000CF91089597FB072E16F4009407D077FDFA
:1029300009D00E94AC1407FC05D03EF49095819517
:102940009F4F0895709561957F4F0895EE0FFF1F7B
:102950000590F491E02D0994AA1BBB1B51E107C01F
:10296000AA1FBB1FA617B70710F0A61BB70B881F1F
:10297000991F5A95A9F780959095BC01CD010895AE
:102980005058BB27AA270E94D8140C941C160E94EA
:102990000E1638F00E94151620F039F49F3F19F4F6
:1029A00026F40C940B160EF4E095E7FB0C94051638
:1029B000E92F0E942D1658F3BA1762077307840790
:1029C000950720F079F4A6F50C944F160EF4E095D7
:1029D0000B2EBA2FA02D0B01B90190010C01CA01D9
:1029E000A0011124FF27591B99F0593F50F4503E84
:1029F00068F11A16F040A22F232F342F4427585F76
:102A0000F3CF469537952795A795F0405395C9F78D
:102A10007EF41F16BA0B620B730B840BBAF0915045
:102A2000A1F0FF0FBB1F661F771F881FC2F70EC0E4
:102A3000BA0F621F731F841F48F4879577956795B7
:102A4000B795F7959E3F08F0B0CF9395880F08F0A3
:102A50009927EE0F9795879508950E94E11508F440
:102A600081E008950E9446150C941C160E941516CC
:102A700058F00E940E1640F029F45F3F29F00C94A4
:102A8000051651110C9450160C940B160E942D161D
:102A900068F39923B1F3552391F3951B550BBB278D
:102AA000AA2762177307840738F09F5F5F4F220FD2
:102AB000331F441FAA1FA9F335D00E2E3AF0E0E8C9
:102AC00032D091505040E695001CCAF72BD0FE2F13
:102AD00029D0660F771F881FBB1F261737074807A7
:102AE000AB07B0E809F0BB0B802DBF01FF2793585F
:102AF0005F4F3AF09E3F510578F00C9405160C9408
:102B000050165F3FE4F3983ED4F38695779567952A
:102B1000B795F7959F5FC9F7880F911D9695879593
:102B200097F90895E1E0660F771F881FBB1F6217B2
:102B300073078407BA0720F0621B730B840BBA0B70
:102B4000EE1F88F7E0950895E89409C097FB3EF4DE
:102B500090958095709561957F4F8F4F9F4F9923EA
:102B6000A9F0F92F96E9BB279395F6958795779568
:102B70006795B795F111F8CFFAF4BB0F11F460FF28
:102B80001BC06F5F7F4F8F4F9F4F16C0882311F080
:102B900096E911C0772321F09EE8872F762F05C094
:102BA000662371F096E8862F70E060E02AF09A952F
:102BB000660F771F881FDAF7880F9695879597F924
:102BC0000895990F0008550FAA0BE0E8FEEF1616BE
:102BD0001706E807F907C0F012161306E407F50711
:102BE00098F0621B730B840B950B39F40A2661F085
:102BF000232B242B252B21F408950A2609F4A14028
:102C0000A6958FEF811D811D089597F99F6780E834
:102C100070E060E008959FEF80EC089500240A942E
:102C20001616170618060906089500240A941216A7
:102C30001306140605060895092E0394000C11F4DA
:102C4000882352F0BB0F40F4BF2B11F460FF04C087
:102C50006F5F7F4F8F4F9F4F089557FD9058440FE0
:102C6000551F59F05F3F71F04795880F97FB991FEB
:102C700061F09F3F79F087950895121613061406A8
:102C8000551FF2CF4695F1DF08C016161706180635
:102C9000991FF1CF86957105610508940895E89410
:102CA000BB2766277727CB0197F908950E946916FD
:102CB0000C941C160E940E1638F00E94151620F077
:102CC000952311F00C9405160C940B1611240C94FA
:102CD00050160E942D1670F3959FC1F3950F50E08A
:102CE000551F629FF001729FBB27F00DB11D639FBE
:102CF000AA27F00DB11DAA1F649F6627B00DA11D64
:102D0000661F829F2227B00DA11D621F739FB00D09
:102D1000A11D621F839FA00D611D221F749F332779
:102D2000A00D611D231F849F600D211D822F762F12
:102D30006A2F11249F5750409AF0F1F088234AF0EF
:102D4000EE0FFF1FBB1F661F771F881F915050405B
:102D5000A9F79E3F510580F00C9405160C9450166F
:102D60005F3FE4F3983ED4F3869577956795B795E2
:102D7000F795E7959F5FC1F7FE2B880F911D9695FC
:102D8000879597F9089581E090E0F8940C9487175F
:102D90008F929F92AF92BF92CF92DF92EF92FF926B
:102DA000CF93DF93EC01688179818A819B816115E2
:102DB00071058105910521F464E279ED8BE597E0D9
:102DC0002DE133EF41E050E00E94241749015A0100
:102DD0009B01AC01A7EAB1E40E9443176B017C019F
:102DE000ACEEB4EFA50194010E945117DC01CB01B8
:102DF0008C0D9D1DAE1DBF1DB7FF03C00197A1091E
:102E0000B04888839983AA83BB83BC01CD019F7797
:102E1000DF91CF91FF90EF90DF90CF90BF90AF9078
:102E20009F908F9008950E94C81608958DE091E0BC
:102E30000E94C816089560930D0170930E0180934F
:102E40000F01909310010895052E97FB1EF4009436
:102E50000E943B1757FD07D00E94561707FC03D06E
:102E60004EF40C943B1750954095309521953F4F6B
:102E70004F4F5F4F089590958095709561957F4F66
:102E80008F4F9F4F08950E947817A59F900DB49F74
:102E9000900DA49F800D911D11240895B7FF0C94EF
:102EA00043170E944317821B930B0895A1E21A2E29
:102EB000AA1BBB1BFD010DC0AA1FBB1FEE1FFF1FDE
:102EC000A217B307E407F50720F0A21BB30BE40B2E
:102ED000F50B661F771F881F991F1A9469F7609575
:102EE0007095809590959B01AC01BD01CF0108952F
:102EF000A29FB001B39FC001A39F700D811D11243B
:102F0000911DB29F700D811D1124911D0895F8949B
:022F1000FFCFF1
:102F12000600E1000000000000FFFFFFFF010000CB
:102F22000008647F0900400A007F0B00400C007F0C
:102F32000D007F10647F11007F12007F13407F38E5
:102F4200647F39007F3A207F3B207F000203050720
:102F5200080A0002030507090A0002040507090B13
:102F6200490142013B010000020000000200000092
:102F72000200000002000100010001000100010046
:102F82000100010001020100000100010001000036
:102F92000100000100010101010001010100010124
:102FA200010001010100000000000100000000001A
:102FB200000001000000000000000100000000000D
:102FC20001000000000000000001000000000000FD
:102FD20000000100000000000000010000000000ED
:102FE20000000100000101000000010000000100DA
:102FF20000000100000001000000000001000000CC
:1030020001000100000001000000010000000100B9
:1030120000000100010001000000000000000100AA
:10302200000001000000000000001C01B4037F0149
:103032003D015B013201000000005308EE041C0850
:0E304200FA070E089A0800C180810000000005
:1070000055C000006EC000006CC000006AC00000E7
:1070100068C0000066C0000064C0000062C00000DC
:1070200060C000005EC00000FCC400005AC0000048
:1070300058C0000056C0000054C0000052C00000FC
:1070400050C000005DC000004CC000004AC00000FD
:1070500048C0000046C0000044C0000042C000001C
:1070600040C000003EC000003CC000003AC000002C
:1070700038C0000036C0000034C0000032C000003C
:1070800030C000002EC000002CC000002AC000004C
:1070900028C0000026C0000024C0000022C000005C
:1070A00020C000001EC000001CC0000011241FBE34
:1070B000CFEFDAE0DEBFCDBF11E0A0E0B1E0E6E463
:1070C000FFE702C005900D92A63AB107D9F711E08B
:1070D000A6EAB1E001C01D92AF3BB107E1F74FD383
:1070E00030C78ECFF89410926F001092810081E02B
:1070F00085BF15BE47985D9A289A0C9400000895A4
:107100001F920F920FB60F9211242F938F939F937C
:10711000EF93FF9310928500109284008091A60156
:107120009091A701009741F001979093A701809358
:10713000A601892B09F45D9A8091A8019091A9017B
:10714000009741F001979093A9018093A801892BA2
:1071500009F4289A8091AC019091AD010196909329
:10716000AD018093AC01E0E0F0E0859194918F5FF8
:107170009F4F49F08091AA019091AB0101969093A5
:10718000AB018093AA01FF91EF919F918F912F9175
:107190000F900FBE0F901F90189584E08093E90028
:1071A0000DC08091E8008B778093E80003C08EB318
:1071B000882351F08091E80082FFF9CF8091E800A8
:1071C00085FFEFCF8091F1000895982F83E08093A1
:1071D000E9008091E80085FD0DC08091E8008E7780
:1071E0008093E80003C08EB3882369F08091E800A3
:1071F00080FFF9CF9093F1005D9884E690E0909342
:10720000A7018093A60108954F925F926F927F929B
:107210008F929F92AF92BF92CF92DF92EF92FF92A6
:107220000F931F93CF93DF9384E08093E9008091C5
:10723000E80082FF57C2289884E690E09093A90165
:107240008093A801AADF182F853481F48CE49DE196
:107250009093AB018093AA0107B600FCFDCFF9998A
:10726000FECF81E180935700E89503C0843519F47F
:1072700094DF8DE00DC28C34E1F38035D1F3843797
:1072800021F484E4A2DF80E003C2813611F489E5B1
:10729000FFC18134B1F481DF182F7FDF90E0880FC8
:1072A000991FAA2797FDA095BA2F312F330F20E001
:1072B000442737FD4095542F822B932BA42BB52BBD
:1072C000B8C1803711F483E5E3C1833549F4C0E0E8
:1072D000D1E089917ADF21E0C730D207D1F7D9C157
:1072E000863521F481E371DF80E3D2C1833731F445
:1072F00087E86BDF85E969DF8EE1CAC18536B9F4BD
:10730000E0E0F0E093E085E090935700E89507B661
:1073100000FCFDCF80935700E89507B600FCFDCF39
:10732000E058FF4FA0E7E030FA0771F7A2CF8237AD
:1073300039F4E1E0F0E089E0809357008491A8C13E
:10734000863439F4E0E0F0E089E0809357008491DE
:107350009FC18E3439F4E3E0F0E089E08093570078
:10736000849196C1813539F4E2E0F0E089E08093C0
:10737000570084918DC1823631F489E526DF80E0A3
:1073800024DF80E885C1823419F0873609F0E5C032
:107390001092AB011092AA0100DF082FFEDEF82E3A
:1073A000FCDE682E8554823008F071C1902F80E099
:1073B000CF2DD0E0C82BD92B10926F00173609F0D3
:1073C0004BC081E180935700E895DD24CC24C39421
:1073D0003FC0E090AF01F090B0010091B101109179
:1073E000B201B6E46B16D9F4ED2DF0E0EE29FF29D9
:1073F000E4918E2FEADEDD2081F082E090E0A0E0D3
:10740000B0E0E80EF91E0A1F1B1FE092AF01F092D8
:10741000B0010093B1011093B201DC2418C0D8016F
:10742000C701B695A7959795879575D5CEDE82E06D
:1074300090E0A0E0B0E0E80EF91E0A1F1B1FE092EA
:10744000AF01F092B0010093B1011093B201219706
:10745000209709F0BECF7DC08090AF019090B00121
:10746000A090B101B090B20196E4691609F05DC038
:1074700083E0F40180935700E89507B600FCFDCF48
:1074800054C0F6E46F1661F5772031F1E090AF015A
:10749000F090B0010091B1011091B2017EDED82EC2
:1074A000CC24852D90E08C299D29F7010C01409278
:1074B0005700E895112482E090E0A0E0B0E0E80EEB
:1074C000F91E0A1F1B1FE092AF01F092B00100935A
:1074D000B1011093B20102C060DE582E742423C0A3
:1074E000E090AF01F090B0010091B1011091B201B4
:1074F00016950795F794E79450DE682FC70113D5CA
:107500008091AF019091B001A091B101B091B20111
:107510000296A11DB11D8093AF019093B001A0937D
:10752000B101B093B201219704C0552477244424BB
:107530004394209709F0A5CF96E4691641F485E0BD
:10754000F40180935700E89507B600FCFDCF8DE06D
:107550003CDE82E080936F009CC0833471F4009124
:10756000AF011091B00119DE90E021E0F8010C01AB
:1075700020935700E89511247CCE833619F5E090CE
:10758000AF01F090B0010091B1011091B20105DEA0
:10759000F701E16090E021E00C0120935700E895AD
:1075A000112482E090E0A0E0B0E0E80EF91E0A1F8E
:1075B0001B1FE092AF01F092B0010093B101109354
:1075C000B20157CE8D3661F4E091AF01F091B00178
:1075D00085E080935700E89507B600FCFDCF49CEC3
:1075E000823551F4E091AF01F091B0010591149111
:1075F000812FEBDD802F4CC0843421F5E090AF016A
:10760000F090B0010091B1011091B201169507956B
:10761000F794E794C2DD682FC70185D48091AF014C
:107620009091B001A091B101B091B2010296A11D5B
:10763000B11D8093AF019093B001A093B101B093BD
:10764000B20117CE843609F5E090AF01F090B00199
:107650000091B1011091B201D801C701B695A7956B
:107660009795879558D4B1DD82E090E0A0E0B0E036
:10767000E80EF91E0A1F1B1FE092AF01F092B00145
:107680000093B1011093B20104C08B3111F08FE36C
:107690009CDD83E08093E9009091E8008091E80010
:1076A0008E778093E80095FF04C010C08EB38823C6
:1076B000C9F08091E80080FFF9CF8091E8008E77D3
:1076C0008093E80003C08EB3882361F08091E800C6
:1076D00080FFF9CF84E08093E9008091E8008B7708
:1076E0008093E800DF91CF911F910F91FF90EF9071
:1076F000DF90CF90BF90AF909F908F907F906F90D2
:107700005F904F9008959091B701892F8F778132C4
:1077100049F58091B8018032A1F0813219F5913A92
:1077200009F58091E800877F8093E8008CE091E084
:1077300067E070E027D28091E8008B778093E800C3
:107740000895913279F48091E800877F8093E80072
:107750008CE091E067E070E079D28091E8008E776C
:107760008093E800089582E061EC42E0D1D083E0AC
:1077700061E842E1CDD084E060E842E1C9C01F93F6
:10778000209100081092000844B714BE88E10FB69B
:10779000F89480936000109260000FBE80E8E0E0F3
:1077A000F0E00FB6F89480936100E09361000FBEA3
:1077B00031E035BF92E095BF3F9A209A559A809369
:1077C00061001092610047985D9A289A1092890092
:1077D0008AEF8093880090936F0083E0809381000C
:1077E000859194918F5F9F4F11F03093AE01942F4C
:1077F00041FF19C0809109012817A9F08093000862
:10780000789480911301882339F08091AC01909194
:10781000AD018F5E9240C8F310920008F89481E0A9
:10782000809313010CC090FF04C08091AE018823A7
:1078300051F493FF09C080910901281729F0809124
:10784000AE01882309F04EDCD4D078941092AB01BD
:107850001092AA011EEF20C0D7DC4BD38091AA0161
:107860009091AB0181549F4110F0109213018091CF
:10787000B3019091B40101969093B4018093B30148
:10788000292F97FF03C0512F591B252F220F28178F
:1078900010F4479801C0479A809113018823E1F6BC
:1078A0008091E00081608093E0001CDC80E090E04B
:1078B0001F910895FA01923049F0933061F09130B0
:1078C000F9F484E191E022E130E01EC086E291E02B
:1078D0002EE330E019C0882329F484E691E024E007
:1078E00030E012C0813029F488E691E022E230E0F5
:1078F0000BC0823029F48CE891E028E130E004C02C
:1079000080E090E020E030E091838083C901089519
:107910008093E9008091EB0081608093EB001092EE
:10792000ED006093EC004093ED008091EE00881F25
:107930008827881F08958091B70188238CF403C09D
:107940008EB38823B1F08091E80082FFF9CF809157
:10795000E8008B778093E80008958EB3882349F080
:107960008091E80080FFF9CF8091E8008E778093C6
:10797000E8000895EF92FF920F931F9345D04CD0EB
:1079800008ED10E0F80180818F7780838081806826
:10799000808380818F7D808319BC1EBA1092B501CF
:1079A00080EEE82EF12CF70180818B7F8083F80137
:1079B00080818160808380E060E042E0A9DFE1EEC9
:1079C000F0E080818E7F8083E2EEF0E08081816054
:1079D0008083808188608083F70180818E7F8083AF
:1079E000F8018081806180831F910F91FF90EF905B
:1079F0000895E7EDF0E08081816080838AE482BFB2
:107A000081E08093B601B6CFE8EDF0E080818E7F13
:107A100080831092E20008951092DA001092E10043
:107A200008951F920F920FB60F9211242F933F9338
:107A30004F935F936F937F938F939F93AF93BF9376
:107A4000EF93FF938091DA0080FF1BC08091D800F4
:107A500080FF17C08091DA008E7F8093DA008091DA
:107A6000D90080FF0BC080E189BD82E189BD09B4E6
:107A700000FEFDCF81E08EBB3BD203C019BC1EBA15
:107A800037D28091E10080FF17C08091E20080FF33
:107A900013C08091E2008E7F8093E2008091E2002B
:107AA00080618093E2008091D80080628093D8004A
:107AB00019BC85E08EBB1CD28091E10084FF2CC0F4
:107AC0008091E20084FF28C080E189BD82E189BD08
:107AD00009B400FEFDCF8091D8008F7D8093D8003F
:107AE0008091E1008F7E8093E1008091E2008F7EA3
:107AF0008093E2008091E20081608093E2008091B7
:107B0000B501882331F48091E30087FD02C081E054
:107B100001C084E08EBBECD18091E10083FF21C0E5
:107B20008091E20083FF1DC08091E100877F8093F8
:107B3000E10082E08EBB1092B5018091E1008E7F62
:107B40008093E1008091E2008E7F8093E20080913B
:107B5000E20080618093E20080E060E042E0D8DEF5
:107B6000C7D1FF91EF91BF91AF919F918F917F917D
:107B70006F915F914F913F912F910F900FBE0F909A
:107B80001F9018959C014091BD015091BE01461770
:107B9000570718F4F90190E044C06115710511F020
:107BA000AB01F8CF8091E8008E778093E80040E049
:107BB00050E0F0CF8EB3882309F444C0853009F437
:107BC00043C08091E80083FF02C081E00895809166
:107BD000E80082FD31C08091E80080FF22C08091E2
:107BE000F3009091F200782F60E0292F30E0262BEF
:107BF000372B07C081918093F100415050402F5F97
:107C00003F4F4115510519F02830310598F390E0A8
:107C10002830310509F491E08091E8008E77809357
:107C2000E8004115510531F6992321F605C08EB3C0
:107C3000882341F0853041F08091E80082FFF7CF42
:107C400080E0089582E0089583E008959C01611525
:107C5000710529F48091E8008B778093E800F901A1
:107C600026C08EB3882391F1853091F18091E80090
:107C700083FF02C081E008958091E80082FFF1CF88
:107C800006C08091F10081936150704059F02091BD
:107C9000F3008091F200322F20E090E0822B932BB2
:107CA000892B79F78091E8008B778093E800611544
:107CB0007105B9F605C08EB3882341F0853041F0D7
:107CC0008091E80080FFF7CF80E0089582E008957A
:107CD00083E008950F931F93DF93CF9300D0CDB728
:107CE000DEB7E7EBF1E08091F100819381E0EF3BBB
:107CF000F807C9F708DD8091E80083FFE4C08091B0
:107D0000B7019091B801953009F46DC0963040F4F8
:107D1000913081F1913070F0933009F0D4C02AC0D5
:107D2000983009F4A3C0993009F4B2C0963009F034
:107D3000CAC07CC0803809F4C6C0823809F0C3C00C
:107D40008091BB0187708093E9008091EB001092D5
:107D5000E9002091E800277F2093E80090E025E0EB
:107D6000969587952A95E1F781708093F10010929E
:107D7000F10087C0882319F0823009F0A4C08F7108
:107D8000823009F0A0C08091B901882331F520919B
:107D9000BB01277009F497C02093E9008091EB00A4
:107DA00080FF1BC0933021F48091EB00806213C0F0
:107DB0008091EB0080618093EB0081E090E002C055
:107DC000880F991F2A95E2F78093EA001092EA0043
:107DD0008091EB0088608093EB001092E900809125
:107DE000E800877F51C0882309F06DC01091B90168
:107DF0001F770FB7F8948091E800877F8093E800A1
:107E00009ADD8091E80080FFFCCF8091E3008078CC
:107E1000812B8093E30080688093E300112311F4A9
:107E200082E001C083E08EBB0FBF4DC0805882301E
:107E300008F049C08091B9019091BA016091BB01ED
:107E4000AE014F5F5F4F36DDBC01009709F43BC0C8
:107E50008091E800877F8093E80089819A8192DE93
:107E60008091E8008B778093E8002DC0803859F529
:107E70008091E800877F8093E8008091B50180932E
:107E8000F1008091E8008E778093E80054DD1BC0FC
:107E90008823C9F49091B9019230A8F48091E80048
:107EA000877F8093E8009093B50145DD8091B5010F
:107EB000882331F48091E30087FD02C081E001C096
:107EC00084E08EBB50DC8091E80083FF0AC0809183
:107ED000EB0080628093EB008091E800877F8093C5
:107EE000E8000F900F90CF91DF911F910F910895AF
:107EF00008951F938EB3882361F01091E9001092CA
:107F0000E9008091E80083FF01C0E4DE1770109360
:107F1000E9001F910895F999FECF92BD81BDF89AAD
:107F2000992780B50895262FF999FECF1FBA92BDE3
:107F300081BD20BD0FB6F894FA9AF99A0FBE01964A
:067F40000895F894FFCF44
:107F46004341544552494E41007700080000000065
:107F5600000008011201100102000008412341003F
:107F660001000201000109023E00020100803209FF
:107F7600040000010202010005240010010424028D
:107F8600040524060001070582030800FF09040111
:107F960000020A000000070504021000010705831D
:107FA6000210000104030904220341007200640068
:107FB600750069006E006F002000590075006E00A4
:107FC60020002000200020002000000018034100AF
:107FD60072006400750069006E006F0020004C009E
:067FE6004C004300000006
:040000030000700089
:00000001FF