:10000000AAC00000D9C00000D7C00000D5C00000C1
:10001000D3C00000D1C00000CFC00000CDC00000A0
:10002000CBC00000C9C00000C7C00000C5C00000B0
:10003000C3C00000C1C00000BFC00000BDC00000C0
:10004000BBC00000B9C00000B7C00000B5C00000D0
:10005000B3C00000B1C00000AFC000000C947B0929
:10006000ABC0000057C100002CC10000A5C00000BB
:10007000A3C00000A1C000009FC000009DC0000000
:100080009BC0000099C0000097C0000095C0000010
:1000900093C0000091C000008FC000008DC0000020
:1000A0008BC0000089C0000087C0000085C0000030
:1000B00083C0000081C000007FC000007DC0000040
:1000C0007BC0000079C0000077C0000075C0000050
:1000D00073C0000071C000006FC000006DC0000060
:1000E0006BC000002016961660164916E015E01544
:1000F0001A16E0151A16E0151A161A161A16E01531
:100100001A161A16B706C306CF06DB06E706F00670
:10011000F906020715072007280731073A074307A2
:100120004C075507D00BF30B180C3D0C620C7D0CE3
:10013000980CB30CC20CE00CFF0C0E0D290D440DF5
:100140005F0D6E0DB20E940E980E9C0EA00EA30EB7
:10015000A70EAC0EB51711241FBECFEFD1E2DEBF44
:10016000CDBF00E00CBF12E0A0E0B2E0EEEEF5E3A0
:1001700000E00BBF02C007900D92A437B107D9F77A
:1001800028E0A4E7B2E001C01D92A13EB207E1F76A
:1001900010E0CBEAD0E000E006C021970109802FF3
:1001A000FE010E947618CA3AD10780E00807A9F735
:1001B0000E948D120C94F51A23CFFC01918D828D33
:1001C000981761F0828DDF01A80FB11D5D968C91AB
:1001D000928D9F5F9F73928F90E008958FEF9FEFB6
:1001E000089589E897E07CD621E0892B09F420E086
:1001F000822F0895EF92FF920F931F93CF93DF9377
:10020000EC0181E0888F9B8D8C8D981305C0E88967
:10021000F989808185FD23C0F62E0B8D10E00F5FDC
:100220001F4F0F731127E02E8C8DE8120BC00FB6F5
:1002300007FCFACFE889F989808185FFF5CFCE01E7
:1002400093D6F2CF8B8DFE01E80FF11DE35AFF4FDD
:10025000F0820B8FEA89FB898081806207C0EE897A
:10026000FF896083E889F98980818064808381E0E7
:1002700090E0DF91CF911F910F91FF90EF90089543
:10028000CF93DF93EC01888D8823C1F0EA89FB8945
:10029000808185FD05C0A889B9898C9186FD0EC035
:1002A0000FB607FCF5CF808185FFF2CFA889B98909
:1002B0008C9185FFEDCFCE0157D6E8CFDF91CF915E
:1002C00008951F920F920FB60F9211240BB60F9242
:1002D0002F933F934F935F936F937F938F939F934E
:1002E000AF93BF93EF93FF9389E897E03DD6FF91DB
:1002F000EF91BF91AF919F918F917F916F915F919E
:100300004F913F912F910F900BBE0F900FBE0F900A
:100310001F9018951F920F920FB60F9211240BB6D3
:100320000F922F938F939F93EF93FF93E0919907F1
:10033000F0919A078081E0919F07F091A00782FDDC
:1003400012C090818091A2078F5F8F732091A307C5
:10035000821751F0E091A207F0E0E757F84F958F30
:100360008093A20701C08081FF91EF919F918F91AF
:100370002F910F900BBE0F900FBE0F901F901895EE
:100380004F925F926F927F92AF92BF92CF92DF9225
:10039000EF92FF920F931F93CF93DF93CDB7DEB70A
:1003A000AC970FB6F894DEBF0FBECDBF6AE085E014
:1003B00094E00E94E60D6CE087EA93E00E94E60D6F
:1003C00066E08CEE92E00E94E60D61E089E995E03E
:1003D0000E94E60D67E08BE296E00E94E60D62E087
:1003E00084E896E00E94E60D80913F0720919102FB
:1003F000309192024091930250919402E0919002C8
:10040000882309F456C0A6E0B0E00E94D61ADC01A9
:10041000CB018E0F911DA11DB11D87709927AA27B1
:10042000BB27892B8A2B8B2B89F40E94711960E1E1
:1004300070E00E946318833018F483E090E002C0FB
:1004400086E090E090930302809302022091910253
:10045000309192024091930250919402A6E0B0E054
:100460000E94D61A20919002620F711D811D911D6C
:100470002091020230E040E050E00E94981A672B81
:10048000682B692B09F0C9C00E94711967E070E000
:100490000E946318873030F4E82FF0E0E85FFD4FEA
:1004A000808101C080E00FEF25E034E04AE06FE793
:1004B000B3C080914007882309F447C0A6E0B0E0AC
:1004C0000E94D61ADC01CB018E0F911DA11DB11D1A
:1004D00087709927AA27BB27892B8A2B8B2B89F416
:1004E0000E94711960E170E00E946318833018F473
:1004F00083E090E002C086E090E090930102809358
:100500000002209191023091920240919302509109
:100510009402A6E0B0E00E94D61A20919002620FE9
:10052000711D811D911D2091000230E040E050E0DE
:100530000E94981A672B682B692B39F40FEF25E07E
:1005400034E04AE06FE786E2A4D700919002C090C1
:100550009102D0909202E0909302F0909402202FAA
:10056000B701A60188ED93E00E94A00F882311F047
:100570001FE701C01FE3202FB701A6018BED93E019
:100580000E94660F882329F080913B07882309F495
:10059000B4C3409191025091920260919302709184
:1005A00094022091900288EE93E00E94A00F88238D
:1005B00029F080913C07882309F4A7C3B0909002EA
:1005C000C0909102D0909202E0909302F090940239
:1005D0002B2DB701A6018BEE93E00E94660F082F2A
:1005E0002B2DB701A60188EF93E00E94660F8823A8
:1005F00039F0011107C080913D0781110EC08DC3F4
:10060000002359F080913D07811107C00FEF25E0CD
:1006100034E04AE0612F88E23CD700919002C0901C
:100620009102D0909202E0909302F0909402202FD9
:10063000B701A6018DE193E00E94A00F882311F07D
:100640001FE701C01FE3202FB701A60180E293E05E
:100650000E94660F882339F00FEF27EA33E04CE061
:10066000612F84E216D740919102509192026091DD
:10067000930270919402209190028DE293E00E9487
:10068000A00F882339F00FEF27EA33E04CE0612F09
:100690008DE2FFD6409191025091920260919302B7
:1006A000709194022091900280E393E00E94A00F49
:1006B000882339F00FEF27EA33E04CE0612F80E325
:1006C000E8D640919102509192026091930270910C
:1006D00094022091900283E393E00E94A00F88236C
:1006E00039F00FEF27EA33E04CE0612F85E2D1D6F5
:1006F0004091910250919202609193027091940204
:100700002091900286E393E00E94660F882339F0DF
:100710000FEF27EA33E04CE0612F8BE2BAD640912D
:1007200091025091920260919302709194022091F3
:10073000900283E493E00E94660F882339F00FEF64
:1007400027EA33E04CE0612F88E2A3D64091910282
:1007500050919202609193027091940220919002C4
:100760008DE593E00E94660F882339F00FEF27EAAA
:1007700033E04CE0612F8EE28CD640919102509193
:1007800092026091930270919402209190028AE605
:1007900093E00E94660F882339F00FEF27EA33E0D9
:1007A0004CE0612F81E375D6409191025091920205
:1007B00060919302709194022091900287E793E0F8
:1007C0000E94660F882339F00FEF27EA33E04CE0F0
:1007D000612F86E25ED68091840340919102509110
:1007E00092026091930270919402811109C020914C
:1007F000900280E593E00E94660F8823B9F12FC034
:10080000A6E0B0E09A01AB010E94D61A20919002B6
:100810006B017C01C20ED11CE11CF11C2091A503CF
:1008200030E040E050E0C701B6010E94981ADA01BA
:10083000C9018F709927AA27BB279C01220F331F5C
:10084000F901EB57FC4F208130E040E050E0C70158
:10085000B6010E94981A672B682B692B39F40FEFA9
:1008600027EA33E04CE0612F8AE213D6B0905C05B2
:1008700000919002C0909102D0909202E090930279
:10088000F0909402202FB701A60186E394E00E9425
:10089000660F8111B0905D0580915F0590916005B4
:1008A0008230910509F45CC0A4F40097C1F001976F
:1008B00009F0FFC0A6E0B0E0A70196010E94D61A99
:1008C000600F711D811D911D26E030E040E050E079
:1008D0005CC083309105E1F0049781F0EAC0A6E0A6
:1008E000B0E0A70196010E94D61A600F711D811D0C
:1008F000911D20E630E040E050E047C0202FB701D6
:10090000A6018EE495E00E94660F811145C0D1C01A
:10091000A6E0B0E0A70196010E94D61A2B013C0187
:10092000400E511C611C711C20914C0530E040E0D0
:1009300050E0C301B2010E94981ADA01C9018F7018
:100940009927AA27BB279C01220F331FF901E45DD9
:10095000FA4F208130E040E050E0C301B20115C001
:10096000B701A60185EF94E00E941E0E90915B05F1
:10097000903808F09FE7981708F49BC0802F66E036
:100980000E945718992341F094C00E94981A672B2F
:10099000682B692B09F08DC0B701A60181E695E0AF
:1009A0000E941E0E20919805821710F5203418F42D
:1009B000B701A6010FC08F7390E02F7330E0B7012D
:1009C000A6018217930734F483E494E00E941E0E7C
:1009D000182F0FC083E494E00E941E0E823040F076
:1009E000843020F0863020F414E003C012E001C00F
:1009F00010E0B701A60185E992E00E941E0EA82E24
:100A0000C701B60120E430E040E050E00E94BA1A8D
:100A1000862F8F70E62FE295EF70F0E0E655FB4FE2
:100A2000E08190E1E99FF0011124E80FF11DE65803
:100A3000FB4F7080B701A60181EB94E00E941E0E6F
:100A400090915E05891728F4739463E00E9457180B
:100A5000790E8BE0E5E8F2E0DE01929601900D92CE
:100A60008A95E1F78A2D810F60918D020E945718B7
:100A7000FE01E90FF11D12A180918E02180F8CE08A
:100A8000789E100D1124202FB701A60188EE94E066
:100A90000E94660F811106C061E089E995E0B6D435
:100AA00006E001C00EEF29E935E041E06B2D812F12
:100AB000F0D48091900266E00E94571891119CC07A
:100AC000F090EB028091910290919202A09193029A
:100AD000B09194028F709927AA27BB27892B8A2B64
:100AE0008B2B19F48CEE92E091D48091E8029091D6
:100AF000E9024090910250909202609093027090AF
:100B000094028130910549F0029789F42091900276
:100B1000B301A20189ED92E006C020919002B301D9
:100B2000A2018CEC92E00E94660F082F01C000E049
:100B3000B301A20185E992E00E941E0E182F002346
:100B400009F45AC066E08CEE92E060D43091E6027F
:100B50008BE0E5E8F2E0DE01119601900D928A95B6
:100B6000E1F720918D02812F622F0E945718E1E05A
:100B7000F0E0EC0FFD1FE90FF11DD08050918E02C7
:100B80009CE0399F500D11249BE0E5E8F2E0DE0186
:100B90001C9601900D929A95E1F782E0810F0E94D8
:100BA0005718FE01E90FF11DE484E50E9BE0E5E82E
:100BB000F2E0DE01579601900D929A95E1F784E0FC
:100BC000810F0E945718FE01E90FF11D1789150FBB
:100BD00006E02CEE32E046E06F2D8D2D850F59D4C6
:100BE0002CEE32E046E06F2D8E2D53D42CEE32E009
:100BF00046E06F2D812F4DD48091290690912A06D1
:100C0000E0919002009789F1019709F04FC020917F
:100C10009102309192024091930250919402A6E089
:100C2000B0E00E94D61A6B017C01CE0ED11CE11CF3
:100C3000F11C2091F00530E040E050E0C701B60122
:100C40000E94981ADA01C9018F709927AA27BB2739
:100C50009C01220F331FF901E053FA4F208130E04D
:100C600040E050E0C701B60114C0209191023091DC
:100C700092024091930250919402A6E0B0E00E944B
:100C8000D61A6E0F711D811D911D26E030E040E0E7
:100C900050E00E94981A672B682B692B39F403E007
:100CA0002BE236E047E060E480E0F3D380919002ED
:100CB0008F5F863018F48093900236C010929002B5
:100CC0008091910290919202A0919302B09194022E
:100CD000BC01CD016F5F7F4F8F4F9F4F20E73AEAF6
:100CE00043E050E00E94BA1A60939102709392021E
:100CF000809393029093940217C00FEF25E034E0A5
:100D00004AE06FE784E2C5D344CC0FEF25E034E03E
:100D10004AE0612F86E2BDD351CC0FEF25E034E0ED
:100D20004AE0612F87E278CCAC960FB6F894DEBF2C
:100D30000FBECDBFDF91CF911F910F91FF90EF902C
:100D4000DF90CF90BF90AF907F906F905F904F906B
:100D50000895862F90E0FC01B497E031F10508F08A
:100D6000B0C08827EE57FF4F8F4F0C94761889EF4D
:100D700096E0D3D6811110923B078091B7069091EF
:100D8000B8068E7F9AC08DEF96E0C7D6811110927B
:100D90003C078091B7069091B8068D7F8EC081E0A8
:100DA00097E0BBD6811110923E078091B7069091D3
:100DB000B8068B7F82C085E097E0AFD68111109294
:100DC0003D078091B7069091B806877F76C089E08D
:100DD00097E0A3D68091B7069091B8068F7E6DC03C
:100DE0008DE097E09AD68091B7069091B8068F7DF6
:100DF00064C081E197E091D68091B7069091B806E2
:100E00008F7B5BC085E197E088D680913907909110
:100E10003A07019721F410923A071092390780910E
:100E2000B7069091B8068F7748C089E197E075D6EC
:100E300010923F078091B7069091B8069E7F3DC003
:100E4000109240078091B7069091B8069D7F35C0FB
:100E500081E297E062D68091B7069091B8069B7FB9
:100E60002CC085E297E059D68091B7069091B806DC
:100E7000977F23C089E297E050D68091B706909182
:100E8000B8069F7E1AC08DE297E047D68091B706DC
:100E90009091B8069F7D11C081E397E03ED6809186
:100EA000B7069091B8069F7B08C085E397E035D6DA
:100EB0008091B7069091B8069F779093B80680937B
:100EC000B7060895FC01918D828D981731F0828DBF
:100ED000E80FF11D858D90E008958FEF9FEF089545
:100EE000FC01918D228D892F90E0805C9F4F821BA9
:100EF00091098F739927089580E090E0892B19F06C
:100F000070D9811125C080E090E0892B41F080E00C
:100F100090E0892B21F00E94000081111CC080E02C
:100F200090E0892B41F080E090E0892B21F00E9435
:100F30000000811113C080E090E0892BA1F080E0D7
:100F400090E0892B81F00E94000081110AC0089571
:100F50000E940000D8CF0E940000E1CF0E94000054
:100F6000EACF0C9400000895FC01848DDF01A80FE6
:100F7000B11DA35ABF4F2C91848D90E001968F73C1
:100F80009927848FA689B7892C93A089B1898C91E0
:100F900080648C93938D848D981306C00288F389A6
:100FA000E02D80818F7D808308952FB7F894609124
:100FB00081027091820280918302909184022FBFFE
:100FC00008950F931F93CF93DF93643309F47AC18D
:100FD00000F5663109F4D3C090F4643109F49BC084
:100FE00008F0C0C06A3009F081C12AE06AE080EBF5
:100FF00090E0DF91CF911F910F910C9417106D31FC
:1010000009F4F4C06E3109F446C16C3109F06EC1C7
:10101000C3C0693409F442C060F4663308F466C1A1
:10102000683308F461C1683409F060C140939805E1
:101030005DC16D3451F018F46B3499F157C16B35C3
:1010400009F451C06D35E1F051C181E0411101C099
:1010500080E08093E7024093EB024A3028F410923C
:10106000E9021092E80242C1403418F481E090E0B5
:1010700002C082E090E09093E9028093E80236C1DA
:10108000403438F481E090E090932A06809329065A
:101090002DC110922A061092290628C140935E05A0
:1010A00025C1842F8695805C80935B054A3028F4A7
:1010B0001092600510925F0519C1483218F484E05F
:1010C00090E004C0403538F483E090E090936005F0
:1010D00080935F050BC1483718F482E090E0F6CFAB
:1010E00081E090E0F3CF642F70E080E090E00E9418
:1010F000851920E030E040EC51E40E94E41920E042
:1011000030E04EEF52E40E9492180E94FA18645F99
:101110006093CB05EBC041111BC0C0E0D0E08E0155
:10112000015F1D4FF80162818181B8D62AE0482F06
:10113000F801608180EB90E07AD72396C732D10521
:1011400071F70E947A11DF91CF911F910F91D1C752
:101150002CDF6093B9067093BA068093BB06909318
:10116000BC06C4C0442309F4C1C01FDF6093BD06A0
:101170007093BE068093BF069093C006B7C0442309
:1011800009F4B4C012DF6093C1067093C206809365
:10119000C3069093C406AAC041111EC025E832E0E0
:1011A00080E090E0F901E80FF91F108A0196803184
:1011B0009105C1F7205F3F4FF2E0253B3F0781F7E4
:1011C00086E090E09093CA028093C902DF91CF91AC
:1011D0001F910F910C949911E8DE6093D9067093DA
:1011E000DA068093DB069093DC0680C0411149C08B
:1011F0000E9447110E947119BC01990F880B990B2D
:101200000E94851920E03EEF4FEF56E40E949218AD
:1012100020E030E040E05FE30E947F1987FF2BC0B1
:101220001092C5020E94711964E070E00E94631878
:10123000813089F050F08230B1F0833091F581E057
:101240008093C6021092C70213C01092C602109279
:10125000C70281E005C01092C60281E08093C702F8
:101260008093C8021EC01092C60281E08093C7021C
:101270001092C80216C085EC92E011D58CE090E087
:1012800012C093DE6093DD067093DE068093DF0666
:101290009093E0062BC041110BC0F9D785EC92E08A
:1012A000FED486E090E09093CA028093C9021EC0EB
:1012B0007CDE6093E1067093E2068093E3069093F0
:1012C000E40614C0411106C0DF91CF911F910F9128
:1012D0000C94FB116ADE6093E9067093EA06809332
:1012E000EB069093EC0602C0442371F3DF91CF919B
:1012F0001F910F9108951F920F920FB60F92112414
:101300002F933F938F939F93AF93BF9380918102CD
:1013100090918202A0918302B09184023091800268
:1013200023E0230F2D3720F40196A11DB11D05C028
:1013300026E8230F0296A11DB11D20938002809301
:10134000810290938202A0938302B09384028091E1
:101350007C0290917D02A0917E02B0917F02019665
:10136000A11DB11D80937C0290937D02A0937E020B
:10137000B0937F02BF91AF919F918F913F912F9139
:101380000F900FBE0F901F9018956D3F71053CF4A4
:101390006A3F710554F4683F710589F406C09B01EA
:1013A0002E5F31092230310550F4DC018D919C9182
:1013B000DC01ED91FC910190F081E02D19940895EC
:1013C00087FF0DC09CE0980F923048F0982F9B7FCC
:1013D000993F29F0803F08F4807F90E0089580E0F5
:1013E00090E008959C018F7C8038910561F0203D4C
:1013F000310549F081E0203E310539F0203C3105CE
:1014000021F080E0089581E0089508951F93CF931F
:10141000DF93EC01162F98A99923B9F0E92FF0E09A
:101420009F01220F331FE20FF31FEC0FFD1F60819E
:10143000915098AB108211821282662331F0212FD5
:1014400040E080E890E0F3D5E6CFDF91CF911F91A7
:1014500008956AE085E094E0D9DF6CE087EA93E0E4
:10146000D5DF66E08CEE92E0D1DF61E089E995E0BE
:10147000CDDF67E08BE296E0C9DF62E084E896E0CA
:10148000C5DFE5E8F2E01486158616861786138612
:101490000895EF92FF920F931F93CF93DF93182F2E
:1014A000E62EF42EE90198A9F901329680E0891719
:1014B00039F020812E3F09F410828F5F3396F7CFE9
:1014C000612FCE014ED3662331F02F2D40E0612FE6
:1014D00080E890E0ACD52F2D4E2D612F80E990E073
:1014E000A6D548A9DE0180E090E0841770F4FC01E5
:1014F0002C91019613962113F8CFCF01880F991FD5
:10150000E80FF91FEC0FFD1F0FC081E0840F88ABBF
:1015100050E0FA01EE0FFF1F4E0F5F1FFE01E40FB8
:10152000F51F108380E481830283DF91CF911F91A7
:101530000F91FF90EF9008950F931F93CF93DF9338
:10154000CDB7DEB7CC5BD4400FB6F894DEBF0FBE8C
:10155000CDBF1092850710928607109287071092D0
:101560008807109243071092440710924507109283
:10157000460768EB7BE080E090E04BD789E897E096
:101580009093840780938307E0919907F0919A07DD
:1015900002E00083E0919507F09196071082E091B8
:1015A0009707F091980780E180831092A107E0915E
:1015B0009D07F0919E0716E01083E0919B07F09144
:1015C0009C07808180618083E0919B07F0919C075C
:1015D000808188608083E0919B07F0919C078081E7
:1015E00080688083E0919B07F0919C0780818F7DCC
:1015F0008083DBDC60934307709344078093450747
:101600009093460762E672E0809183079091840789
:1016100027D76AE070E080E090E0FBD681E080931D
:10162000570782EC9BE0909329088093280889EA69
:1016300096E0909327088093260880EC91E09093A1
:101640003F0880933E0881EE97E090932D088093A9
:101650002C0889E29AE09093450880934408E09131
:101660004A08F0914B08A089B1890C93A485B585EF
:101670001C92A685B7858FE38C93108EA489B589BB
:101680001C93A289B3898C9180618C93A289B389C0
:101690008C9188608C93A289B3898C9180688C939B
:1016A0000288F389E02D80818F7D808310924C0821
:1016B00010924E0810924D0810925508109254083E
:1016C00010925308109252088FEF9FEF9093570893
:1016D0008093560890935908809358081092E00818
:1016E00010925D0810925C0810925B0810925E08E0
:1016F00010925F0880915A088170826081608093A7
:101700005A0880917B00877F80937B0080E48093E0
:101710007C0080917A00806480937A0080917A00C6
:1017200086FDFCCF809178002091790090E0922B8B
:101730000E9474198CEB94E0FE013196DF019C014C
:101740001D9221503040E1F7A5E8B2E001900D92E2
:101750000197E1F760E480E2A1D32AE0482F6AE034
:1017600080EB90E064D4C6D5C4D4E3D5C454DB4F39
:101770000FB6F894DEBF0FBECDBFDF91CF911F91A2
:101780000F9139C6862F90E0FC01B497E031F10546
:1017900008F0C2C18827EE56FF4F8F4F0C94761881
:1017A00004DC6093F9067093FA068093FB0690932D
:1017B000FC068091390790913A078130910529F410
:1017C00010928F0210928E0208C0892B31F49091F2
:1017D0003B0781E0892780933B078091B706909172
:1017E000B806816095C1E1DB6093FD067093FE064B
:1017F0008093FF06909300078091390790913A07F4
:101800008130910539F482E090E090938F028093CB
:101810008E0208C0892B31F490913C0781E0892722
:1018200080933C078091B7069091B806826070C1A2
:10183000BCDB6093010770930207809303079093CA
:1018400004078091390790913A078130910539F466
:1018500084E090E090938F0280938E0208C0892BE1
:1018600031F490913E0781E0892780933E07809173
:10187000B7069091B80684604BC197DB609305076B
:1018800070930607809307079093080780913907A4
:1018900090913A078130910539F485E090E090937A
:1018A0008F0280938E0208C0892B31F490913D07FE
:1018B00081E0892780933D078091B7069091B80613
:1018C000886026C172DB6093090770930A078093D2
:1018D0000B0790930C078091390790913A07019775
:1018E00031F487E090E090938F0280938E02809194
:1018F000B7069091B80680610BC157DB60930D0766
:1019000070930E0780930F0790931007809139070B
:1019100090913A07019731F489E090E090938F021B
:1019200080938E028091B7069091B8068062F0C0D5
:101930003CDB609311077093120780931307909319
:1019400014078091390790913A07019731F48BE0A1
:1019500090E090938F0280938E028091B7069091D1
:10196000B8068064D5C021DB609315077093160715
:1019700080931707909318078091B7069091B80647
:101980008068C6C012DB6093190770931A078093B2
:101990001B0790931C078091390790913A0781307B
:1019A000910529F490938F0280938E0203C081E009
:1019B00080933F078091B7069091B8069160A8C0C8
:1019C000F4DA60931D0770931E0780931F079093AE
:1019D00020078091390790913A07019739F483E005
:1019E00090E090938F0280938E0203C081E08093F9
:1019F00040078091B7069091B806926089C0D5DA09
:101A00006093210770932207809323079093240704
:101A10008091B7069091B80694607AC0C6DA609358
:101A200025077093260780932707909328078091B6
:101A3000390790913A07019731F486E090E090934E
:101A40008F0280938E028091B7069091B8069860BD
:101A50005FC0ABDA6093290770932A0780932B0746
:101A600090932C078091390790913A07019731F4B0
:101A700088E090E090938F0280938E028091B70669
:101A80009091B806906144C090DA60932D077093EE
:101A90002E0780932F0790933007809139079091FC
:101AA0003A07019731F48AE090E090938F02809397
:101AB0008E028091B7069091B806906229C075DABF
:101AC0006093310770933207809333079093340704
:101AD0008091B7069091B80690641AC066DA609358
:101AE00035077093360780933707909338078091B6
:101AF000390790913A07892B31F481E090E0909377
:101B00003A07809339078091B7069091B80690689C
:101B10009093B8068093B70608950F931F93CF93C1
:101B2000DF93EC0142DA088119812A813B81061793
:101B300017072807390770F4DC01CB01801B910BD4
:101B4000A20BB30B21E0853F9140A105B10518F42C
:101B500020E001C021E0822FDF91CF911F910F91F2
:101B60000895CF93DF93EC0198A9DE0120E030E0E7
:101B7000291730F5F9018C912F5F3F4F139686138B
:101B8000F7CF9F01220F331FE20FF31FEC0FFD1F52
:101B9000608171818281292F30E021503109D90182
:101BA000AA0FBB1F2A0F3B1FDE01A20FB31F2D91EF
:101BB0003D914C91208331834283915098AB03C077
:101BC00060E070E080E0DF91CF910895FF920F9385
:101BD0001F93CF93DF93EC0128A9222349F1FC0145
:101BE000329680E0908191509D3F08F490838F5F02
:101BF00033968213F7CF062F10E088A91817C0F488
:101C0000E12FF0E0CF01880F991FE80FF91FEC0FCB
:101C1000FD1F828181110AC0F080202F40E06F2DCE
:101C200080E890E004D26F2DCE019BDF1F5FE5CFEF
:101C3000DF91CF911F910F91FF9008950F93CF9354
:101C4000DF93EC01A6E0B0E09A01AB010E94D61A46
:101C50002CA930E040E050E00E94981ACA01B90176
:101C60000EA9013108F000E1202F30E040E050E003
:101C70000E94981ADC01CB018F709927AA27BB27F5
:101C800040E1249F90011124B901680F791FFE01E2
:101C9000E60FF71F8081DF91CF910F910895CF93C9
:101CA000DF93EC0118820E94711965E070E00E94D8
:101CB00063188230B9F040F4882381F08130E1F478
:101CC00081E089831A8216C0833089F08430A1F4C0
:101CD00081E0898382E08A831B820EC081E0898350
:101CE0001A8209C081E0898392E09A8304C0198234
:101CF00081E08A8382E08B83DF91CF910895CF9337
:101D0000DF93EC0118820E94711968E070E00E9474
:101D1000631890E08830910528F5FC018827EE557E
:101D2000FF4F8F4F0C94761819821A8281E018C0E9
:101D3000198281E08A8314C0198281E08A8314C0E9
:101D400081E0898310C081E089831A8209C081E023
:101D500089831A8282E004C081E0898392E09A83B9
:101D60008B8303C019821A821B82DF91CF91089561
:101D70008F929F92AF92BF92EF92FF920F931F9319
:101D8000CF93DF938C014A015B01C0E0D0E0EE24E9
:101D9000E394F12C0E947119BC01990F880B990BE7
:101DA0000E94851920E03EEF4FEF56E40E94921802
:101DB000A50194010E947F19F8016081718187FF5C
:101DC0000AC0C7010C2E02C0880F991F0A94E2F7BF
:101DD000682B792B0BC0F7010C2E02C0EE0FFF1FF2
:101DE0000A94E2F7E095F0956E237F23F801718362
:101DF00060832196C031D10569F6DF91CF911F91A3
:101E00000F91FF90EF90BF90AF909F908F900895AB
:101E1000CF92DF92EF92FF92CF93DF93EC016A01B2
:101E20007B01A6DFB701A601CE010296A1DFB701B3
:101E3000A601CE0104969CDFCE010696DF91CF91DC
:101E4000FF90EF90DF90CF905ACFCF92DF92EF923A
:101E5000FF920F931F93CF93DF938C01F62EE82E02
:101E6000C82FD12FC62ED12C8C2F8E198F1568F428
:101E70000E947119B6010E9463189881F801E80F59
:101E8000F11D808189939083EFCFDF91CF911F91D6
:101E90000F91FF90EF90DF90CF900895CF93DF9355
:101EA000D82F681708F4D62FC82F861708F4C62F26
:101EB000CD1B39F00E9471196C2F70E00E946318DD
:101EC000C82F8C2F8D0FDF91CF9108950F93CF9353
:101ED000DF93EC01E22FA6E0B0E09A01AB010E9493
:101EE000D61A6E0F711D811D911D2A8530E040E0CC
:101EF00050E00E94981ACA01B9010C85013108F01E
:101F000000E1202F30E040E050E00E94981AFE01EE
:101F1000E20FF11DE20FF11DDC01CB019927AA2789
:101F2000BB27BC016F7077278081918102C0969595
:101F300087956A95E2F78170DF91CF910F910895AF
:101F4000CF92DF92EF92FF92CF93DF93EC016A0181
:101F50007B01822F66E00E945718911113C02A81DD
:101F600030E040E050E0C701B6010E94981A6F705F
:101F700077278881998102C0969587956A95E2F7BF
:101F8000817001C080E0DF91CF91FF90EF90DF90F2
:101F9000CF900895DC01ED91FC910190F081E02D4E
:101FA0001994CF92DF92EF92FF920F931F93CF93EA
:101FB000DF936C017A018B01C0E0D0E0CE15DF0524
:101FC00089F0D8016D918D01D601ED91FC910190C0
:101FD000F081E02DC6011995892B11F47E0102C014
:101FE0002196ECCFC701DF91CF911F910F91FF9008
:101FF000EF90DF90CF900895CF93DF9300D0CDB7CF
:10200000DEB71A82198280E18B8340E050E060E8FD
:102010007EE3CE010196ACDE69817A818B810F90DF
:102020000F900F90DF91CF9108950E942619EF92A3
:10203000FF921F93CF93DF931F92CDB7DEB77C0142
:10204000162F2150203108F04DC080E8E816F10429
:102050000CF448C0A1EEEA16F104ACF580914A08F0
:1020600090914B08DC01ED91FC916E2D622B01905B
:10207000F081E02D4983199580914A0890914B0891
:10208000DC01ED91FC91612F6F770190F081E02DE3
:102090001995E894E4F84981B0ECEB16F10411F1DC
:1020A00080914A0890914B08DC01ED91FC91642FDE
:1020B0006F770190F081E02D0F90DF91CF911F910C
:1020C000FF90EF901994C701885F9109089750F429
:1020D000B7018AE498E00F90DF91CF911F91FF90B4
:1020E000EF9053C90F90DF91CF911F91FF90EF9028
:1020F0000895CF92DF92EF92FF921F93CF93DF93D9
:10210000CDB7DEB728970FB6F894DEBF0FBECDBFB0
:1021100073DF60931D0370931E0380931F036CDFB6
:1021200060932D0370932E0380932F0365DF6093DC
:10213000300370933103809332035EDF6093330387
:10214000709334038093350340E050E060E87EE311
:1021500086E393E05DDE40E050E060E07FE387E708
:1021600093E056DE0E947119BC01990F880B990B00
:102170000E94851920E03EEF4FEF56E4D3D76B0164
:102180007C0120E030E040E85EE30E947F1987FF99
:102190000FC040E050E060E87EE380E593E038DE89
:1021A00040E050E060E87EE38DE593E031DE5BC027
:1021B00020E030E040E05FE3C701B6010E947F19F4
:1021C00087FF54C088E0E6E3F2E0DE01119601905B
:1021D0000D928A95E1F768E0CE01019636DE6981BD
:1021E00070E080E090E00E9485196B017C012DEC8D
:1021F0003CEC4CE45FE30E94E419FCD7162F2AE97B
:1022000039E949E95EE3C701B6010E94E419F2D752
:10221000862F623008F482E0612F40DE898180934E
:102220005C036A8170E080E090E00E9485196B0198
:102230007C012DEC3CEC4CE45FE30E94E419DAD71E
:10224000162F2AE939E949E95EE3C701B6010E9480
:10225000E419D0D7862F623008F482E0612F1EDEA9
:102260008A8180935C031092840303C081E0809391
:10227000840328960FB6F894DEBF0FBECDBFDF9162
:10228000CF911F91FF90EF90DF90CF900895CF9363
:10229000DF9300D01F92CDB7DEB782E0898383E061
:1022A0008A8384E08B8385E08C8364E0CE01019691
:1022B000CCDDE5E9F2E0119282E0E53AF807D9F7E2
:1022C0008981E5EAF2E0819392E0E53BF907D9F7ED
:1022D0008A81E5EBF2E0819392E0E53CF907D9F7DA
:1022E00085EC92E00CDD0F900F900F900F90DF9136
:1022F000CF9108956DE084E0D1DDF3D7BC01990F53
:10230000880B990B0E94851920E03EEF4FEF56E4B1
:1023100009D720E030E040E05FE3F1D740E050E053
:10232000BA0187FF03C08BEE93E002C088EF93E011
:102330006FCDCF93DF93CDB7DEB72D970FB6F8945F
:10234000DEBF0FBECDBF1A8219821C821B821E8285
:102350001D8240E050E060E07FE3CE01019608DDA1
:1023600040E050E060E07FE3CE01039601DD40E015
:1023700050E060E07FE3CE010596FADCCE010796DF
:10238000BEDC80E48D8786E090E09C878B878DE0C3
:10239000FE013196A9EDB2E001900D928A95E1F728
:1023A0006BE085E07BDD8FED92E0A9DC64E083E00B
:1023B00075DD97D764E070E086D6823028F41092FD
:1023C000CF021092CE0204C01092CD021092CC0225
:1023D0001092D1021092D00282ED92E060DC80E196
:1023E0008093D8022D960FB6F894DEBF0FBECDBFF6
:1023F000DF91CF9108954AE959E969E17EE388EEDA
:1024000094E006DD40E050E060E07FE386E394E0A6
:10241000FFCC8F929F92AF92BF92CF92DF92EF92BA
:10242000FF926B017C010E94D5074B015C01C60E37
:10243000D71EE81EF91E0E94D507681579058A0582
:102440009B0528F0C616D706E806F906A0F7FF9008
:10245000EF90DF90CF90BF90AF909F908F900895B6
:102460006115710579F0FB0101900020E9F73197C2
:10247000AF01461B570BDC01ED91FC910280F3810B
:10248000E02D199480E090E008954F925F926F9252
:102490007F92EF92FF920F931F93CF93DF93CDB76D
:1024A000DEB7A1970FB6F894DEBF0FBECDBF7C019B
:1024B000FA01CB0119A2223008F42AE08E010F5D47
:1024C0001F4F422E512C612C712CBF01A301920190
:1024D0000E94981AF901CA01015011096A3014F4D6
:1024E000605D01C0695CD8016C93232B242B252BE4
:1024F00061F7B801C701B4DFA1960FB6F894DEBF4B
:102500000FBECDBFDF91CF911F910F91FF90EF9044
:102510007F906F905F904F900895CF93DF931F92BD
:10252000CDB7DEB7789484B5826084BD84B5816010
:1025300084BD85B5826085BD85B5816085BD80918E
:102540006E00816080936E00109281008091810006
:1025500082608093810080918100816080938100FE
:10256000809180008160809380008091B1008460C0
:102570008093B1008091B00081608093B000809121
:10258000910082608093910080919100816080939E
:102590009100809190008160809390008091A100D3
:1025A00082608093A1008091A10081608093A1004E
:1025B0008091A00081608093A000809121018260C1
:1025C000809321018091210181608093210180917C
:1025D000200181608093200180917A008460809343
:1025E0007A0080917A00826080937A0080917A00EC
:1025F000816080937A0080917A00806880937A006D
:102600001092C1000E949C0A64EF862E9924939434
:10261000A12CB12C00E810E0DD24D39472E0272E29
:10262000312CEE24E394F12C0E94D507672B682B04
:10263000692B41F40E94D50762307105810591052F
:1026400008F4FEC00E94D507609378027093790267
:1026500080937A0290937B022091740230917502EC
:1026600040917602509177026217730784079507AD
:1026700040F4609374027093750280937602909395
:1026800077024090740250907502609076027090CC
:1026900077029B01AC012419350946095709290124
:1026A0003A013AEF431651046104710408F4C8C0BA
:1026B0006093740270937502809376029093770210
:1026C00080924F0790925007A0925107B092520704
:1026D0001092530710925407109255071092560704
:1026E0008091470790914807A0914907B0914A0708
:1026F00080934B0790934C07A0934D07B0934E07E0
:102700000E94D50760934707709348078093490755
:1027100090934A070E94D50760934307709344073C
:1027200080934507909346070E94D5072B013C01F3
:102730006EE472E0809183079091840791DE2AE035
:1027400041E050E060E070E0809183079091840761
:102750009CDE65E572E0809183079091840780DEBE
:102760002AE0B301A20180918307909184078DDE56
:1027700067E572E0809183079091840771DE809114
:10278000470790914807A0914907B0914A07B301C4
:10279000A201481B590B6A0B7B0B2AE0809183072F
:1027A0009091840772DE67E572E0809183079091D3
:1027B000840756DE409147075091480760914907CA
:1027C00070914A0780914B0790914C07A0914D075B
:1027D000B0914E07481B590B6A0B7B0B2AE0809186
:1027E00083079091840751DE69E572E08091830749
:1027F0009091840735DE0E94D507AB01BC012AE029
:10280000809183079091840740DE609083077090E9
:1028100084076BE572E0C30123DE61E772E0C30168
:102820001FDE65E070E080E090E0F3DD0E94D507F8
:1028300060934707709348078093490790934A072E
:10284000C0904C0840E14C1508F4BAC180914A0888
:1028500090914B08DC01ED91FC910480F581E02D15
:102860001995892B09F4ACC180914A0890914B08C5
:10287000DC01ED91FC910680F781E02D19952C018A
:102880008B7F893F09F49CC12091540830915508F1
:102890002115310509F0ADC040924F0870904D08E8
:1028A000872D0E94E0090E94F209882351F047FC1D
:1028B00008C070924F0840925008F0925508E0927C
:1028C000540870904F08872D0E94E009813F9105C0
:1028D00009F45EC074F5803B910509F45EC06CF4A8
:1028E0008039910509F459C0803A910509F455C021
:1028F0008038910509F0D9C050C0803D910509F498
:1029000047C02CF4803C910509F442C0CEC0803E03
:10291000910509F442C0803F910509F0C6C01093AB
:1029200053080093520810924D0830EF309360081E
:102930003AC0883F9105B9F044F4833F910541F1D5
:1029400064F1863F910579F0B0C08A3F91050CF49F
:10295000ACC08D3F91053CF09C012E5F31092230C7
:10296000310508F0A2C090935D0880935C08109236
:102970005B0810925E0810925F08D092E0081092F7
:102980005508109254081092530810925208F3C040
:10299000309253082092520806C023E030E0309372
:1029A00053082093520820915408309155084091C3
:1029B000520850915308415051092417350708F423
:1029C000D3C090935D0880935C08872D8F708F5FD4
:1029D00080935B088091500880935E0810925F0896
:1029E00010925508109254081092530810925208F1
:1029F00021C047FE44C0C20199278D3F910554F480
:102A00008A3F91056CF4873F9105B9F0883F9105A5
:102A1000B1F506C0AC014E5F51094230510578F561
:102A200090935D0880935C0810925E0810925F0896
:102A300010925B08D092E0089EC080916008803FB1
:102A4000A1F5C9010196F901EA5DF74F47EF42AFE1
:102A5000A0EFB0E0B0935D08A0935C0880935E089F
:102A600090935F0810925B08D092E008109255088E
:102A700010925408109253081092520872C080911C
:102A80004F08F901EA5DF74F803FD1F442AE609004
:102A9000520870905308C30101972817390708F4AA
:102AA00063C020914F08203F69F41092550810929E
:102AB0005408109253081092520810924D0880C08A
:102AC00041A6E5CF822F29830E94E0092C01909333
:102AD0005D0880935C080E94F2092981882331F007
:102AE000822F8F708F5F80935B0802C010925B080B
:102AF0008091500880935E08B3E06B16710419F45E
:102B00008091510801C080E080935F0810925508C1
:102B1000109254081092530810925208D092E00874
:102B200030EB43165104D1F06CF450E945165104D2
:102B3000A9F080EA4816510489F0A0E84A16510429
:102B400081F40CC0B0ED4B16510441F030EE431649
:102B5000510421F040EC4416510419F420934D081F
:102B60000AC010924D0807C02F5F3F4F30935508A1
:102B70002093540825C080915C0890915D088039AD
:102B8000910529F480915F08882309F4F4C08091AD
:102B90005C0890915D089C0120583109213631056F
:102BA00008F0EEC020915B082C1509F4E9C0CC2098
:102BB00009F4E6C030915A08432F417030FD03C03C
:102BC0000E947C0731CD832F8E7FD1F3A0915C08CA
:102BD000B0915D08CD018058910981369105F8F4D6
:102BE00020915B082C1519F041E0C11040E03695AA
:102BF000832F90E08230910531F08330910531F0E0
:102C00000197F1F605C04423D9F202C04111D8CF93
:102C100040915F0860915E08CD0109DAD1CFFD01D6
:102C2000E05FF109E031F10558F68827EE58FF4FD3
:102C30008F4F5CC2BD018AE498E00E94C509C0CFF5
:102C400080915F0890E0582E442480915E08482AC5
:102C5000B1E84B16510418F030E8432E512C612C8A
:102C6000712C6414750409F4ABCF80914A089091DB
:102C70004B08DC01ED91FC91D301AA5DB74F0190A7
:102C8000F081E02DDA966C911995BFEF6B1A7B0AF3
:102C9000E8CFC0905E0880914A0890914B08DC0113
:102CA000ED91FC910190F081E02D63EF19956C2D71
:102CB0006F7770E080914A0890914B086BD980CF74
:102CC00090915F08B0E89B9F3001112480915E08CD
:102CD000682A80914A0890914B08DC01ED91FC91A3
:102CE0000190F081E02D62EF199580914A08909152
:102CF0004B08DC01ED91FC91B3016F7777270190D0
:102D0000F081E02D199580914A0890914B08DC01E3
:102D1000ED91FC91B301660F672F661F770B7195DC
:102D20006F7777270190F081E02D23C080915E08B6
:102D30008770B0E18B9FC001112490915F089F7054
:102D4000C92EC82A80914A0890914B08DC01ED9168
:102D5000FC910190F081E02D61EF199580914A0876
:102D600090914B08DC01ED91FC910190F081E02DF8
:102D70006C2D199525CF10935D0800935C0807CF43
:102D8000813F9105C1F4E0913608F09137080CC0FD
:102D90008B3F91050CF0C8C0833F910509F0A5C099
:102DA000E0913A08F0913B08309709F403CF809105
:102DB0005E081995FFCE823F91050CF080C0803BE4
:102DC0009105C1F4E0912C08F0912D0808C08038DD
:102DD000910509F0EFCEE0912608F0912708309791
:102DE00009F4E8CE40915F0860915E0880915B082D
:102DF0001995E0CE813B910584F48039910529F441
:102E0000E0912808F0912908EACF803A9105F9F677
:102E1000E0912A08F0912B08E2CF803D910529F43A
:102E2000E0913008F09131080BC0813D91058CF4A0
:102E3000803C910509F0BECEE0912E08F0912F085C
:102E4000309709F4B7CE60915E0880915B081995C0
:102E5000B1CE803E9105B9F4E0913208F09133088B
:102E6000309709F4A7CE60915F086F7750E8659FAF
:102E7000B001112480915E088F77682B7052809189
:102E80005B08199597CE803F910509F093CEE091AC
:102E90003408F0913508309709F48CCE60915F08C2
:102EA00070E0762F662780915E08682B6138710587
:102EB00010F060E870E080E698E019957BCE8A3FDC
:102EC000910509F065CFE0914008F091410808C0F4
:102ED000883F910509F06ECEE0913E08F0913F08E1
:102EE000309709F467CE199565CE833F9105A4F418
:102EF000E0913808F0913908309709F45BCE809161
:102F00005F088F77A0E88A9FC001112420915E0896
:102F10002F77822B19954ECE863F9105C9F6E09109
:102F20003C08F0913D08DCCF8C3F910529F4E091FD
:102F30004408F0914508D4CF8C3F91052CF4E091E2
:102F40004208F0914308CCCF8E3F910529F4E091DF
:102F50004608F0914708C4CF8F3F910509F02ACE6B
:102F6000E0914808F0914908BBCFCF93DF93A9E8DF
:102F7000B7E013961C921E92129748EE53E060E061
:102F800070E014964D935D936D937C93179782E454
:102F900092E011969C938E9385EC90E01D969C9305
:102FA0008E931C9784EC90E01F969C938E931E97B3
:102FB00080EC90E051969C938E93509781EC90E03A
:102FC00053969C938E93529782EC90E055969C93E7
:102FD0008E93549786EC90E057969C938E935697D9
:102FE00059961C9259975A961C925A975B961C9226
:102FF0005B975C961C925C97E1E4F7E0168217827F
:1030000010861186128613861486158616861786F4
:10301000108A118A128A138A148A158AE6E2F8E065
:10302000B5A3A4A316A217A210A615A614A617A6A8
:1030300016A68FEF9FEF91AB80AB93AB82AB83E093
:1030400080935A0815AA17AA16AA10AE11AE1092AC
:10305000E00880E8A0E6B8E0ED0119928A95E9F76A
:1030600011821082138212821582148217821682B4
:103070001186108613861286158614861786168684
:10308000118A108A138A128A158A148A178A168A54
:10309000118E108E138E128E158E148E178E168E24
:1030A00011A210A213A212A2DF91CF910895991B31
:1030B00079E004C0991F961708F0961B881F7A952F
:1030C000C9F78095089597FB072E16F4009406D053
:1030D00077FD08D013D007FC05D03EF4909581957C
:1030E0009F4F0895709561957F4F0895EE0FFF1FD4
:1030F000881F8BBF0790F691E02D1994AA1BBB1B6C
:1031000051E107C0AA1FBB1FA617B70710F0A61BE7
:10311000B70B881F991F5A95A9F780959095BC0108
:10312000CD0108950CD0CAC1C2D140F0B9D130F060
:1031300021F45F3F19F0ABC15111F4C1AEC1CFD141
:1031400098F39923C9F35523B1F3951B550BBB276E
:10315000AA2762177307840738F09F5F5F4F220F1B
:10316000331F441FAA1FA9F333D00E2E3AF0E0E814
:1031700030D091505040E695001CCAF729D0FE2F60
:1031800027D0660F771F881FBB1F261737074807F2
:10319000AB07B0E809F0BB0B802DBF01FF279358A8
:1031A0005F4F2AF09E3F510568F071C1BBC15F3F80
:1031B000ECF3983EDCF3869577956795B795F79590
:1031C0009F5FC9F7880F911D9695879597F9089588
:1031D000E1E0660F771F881FBB1F62177307840724
:1031E000BA0720F0621B730B840BBA0BEE1F88F733
:1031F000E09508957CD188F09F5790F0B92F9927DA
:10320000B751A0F0D1F0660F771F881F991F1AF0F1
:10321000BA95C9F712C0B13081F083D1B1E00895F9
:1032200080C1672F782F8827B85F39F0B93FCCF37A
:10323000869577956795B395D9F73EF490958095E7
:10324000709561957F4F8F4F9F4F089581E090E07B
:10325000F894CBC18F929F92AF92BF92CF92DF92A0
:10326000EF92FF92CF93DF93EC01688179818A819D
:103270009B81611571058105910521F464E279ED69
:103280008BE597E02DE133EF41E050E073D1490148
:103290005A019B01AC01A7EAB1E488D16B017C0122
:1032A000ACEEB4EFA50194018DD1DC01CB018C0D06
:1032B0009D1DAE1DBF1DB7FF03C00197A109B048FA
:1032C00088839983AA83BB839F77DF91CF91FF90F7
:1032D000EF90DF90CF90BF90AF909F908F90089528
:1032E000B9CF84E092E0B6CFA0E0B0E080930402D2
:1032F00090930502A0930602B0930702089540D070
:1033000008F481E00895E89409C097FB3EF4909595
:103310008095709561957F4F8F4F9F4F9923A9F0AE
:10332000F92F96E9BB279395F6958795779567953D
:10333000B795F111F8CFFAF4BB0F11F460FF1BC081
:103340006F5F7F4F8F4F9F4F16C0882311F096E914
:1033500011C0772321F09EE8872F762F05C06623C2
:1033600071F096E8862F70E060E02AF09A95660F7B
:10337000771F881FDAF7880F9695879597F9089534
:10338000990F0008550FAA0BE0E8FEEF1616170676
:10339000E807F907C0F012161306E407F50798F0DE
:1033A000621B730B840B950B39F40A2661F0232BF7
:1033B000242B252B21F408950A2609F4A140A69573
:1033C0008FEF811D811D08950BD078C069D028F042
:1033D0006ED018F0952309F05AC05FC01124A2C026
:1033E0007ED0A0F3959FD1F3950F50E0551F629FBB
:1033F000F001729FBB27F00DB11D639FAA27F00D4E
:10340000B11DAA1F649F6627B00DA11D661F829F74
:103410002227B00DA11D621F739FB00DA11D621F59
:10342000839FA00D611D221F749F3327A00D611D76
:10343000231F849F600D211D822F762F6A2F112458
:103440009F5750408AF0E1F088234AF0EE0FFF1FAB
:10345000BB1F661F771F881F91505040A9F79E3FE2
:10346000510570F014C05EC05F3FECF3983EDCF392
:10347000869577956795B795F795E7959F5FC1F71F
:10348000FE2B880F911D9695879597F9089597F9CA
:103490009F6780E870E060E008959FEF80EC0895FA
:1034A00000240A9416161706180609060895002423
:1034B0000A9412161306140605060895092E03949D
:1034C000000C11F4882352F0BB0F40F4BF2B11F411
:1034D00060FF04C06F5F7F4F8F4F9F4F089557FD70
:1034E0009058440F551F59F05F3F71F04795880F72
:1034F00097FB991F61F09F3F79F087950895121609
:1035000013061406551FF2CF4695F1DF08C01616B4
:1035100017061806991FF1CF869571056105089465
:103520000895E894BB2766277727CB0197F908957C
:10353000A1E21A2EAA1BBB1BFD010DC0AA1FBB1FB7
:10354000EE1FFF1FA217B307E407F50720F0A21B29
:10355000B30BE40BF50B661F771F881F991F1A9496
:1035600069F760957095809590959B01AC01BD01C0
:10357000CF010895052E97FB16F400940FD057FD48
:1035800005D0D6DF07FC02D046F408C05095409520
:10359000309521953F4F4F4F5F4F089590958095FF
:1035A000709561957F4F8F4F9F4F08950FD0A59FC6
:1035B000900DB49F900DA49F800D911D112408952E
:1035C000B7FFF4CFF3DF821B930B0895A29FB001E6
:1035D000B39FC001A39F700D811D1124911DB29F47
:0E35E000700D811D1124911D0895F894FFCFE8
:1035EE0006000600010000002426292B2D2728089E
:1035FE007E7F0910400B10400C007F0D007F107E67
:10360E007F11007F12004013407F387E7F39007F8C
:10361E003A00403B00400607080A0C0E0F1000004F
:10362E000000FA00D10F7007DD0062074001564D11
:10363E004450455F003A323A007C005F564D44508C
:10364E004500564D4450565F317C315F564D4450C7
:04365E00560D0A00FB
:00000001FF
