:10000000AAC00000D9C00000D7C00000D5C00000C1
:10001000D3C00000D1C00000CFC00000CDC00000A0
:10002000CBC00000C9C00000C7C00000C5C00000B0
:10003000C3C00000C1C00000BFC00000BDC00000C0
:10004000BBC00000B9C00000B7C00000B5C00000D0
:10005000B3C00000B1C00000AFC0000097C70000EF
:10006000ABC00000DEC60000B3C60000A5C00000A3
:10007000A3C00000A1C000009FC000009DC0000000
:100080009BC0000099C0000097C0000095C0000010
:1000900093C0000091C000008FC000008DC0000020
:1000A0008BC0000089C0000087C0000085C0000030
:1000B00083C0000081C000007FC000007DC0000040
:1000C0007BC0000079C0000077C0000075C0000050
:1000D00073C0000071C000006FC000006DC0000060
:1000E0006BC000000F011B01270133013F014801D4
:1000F00051015A016D0178018001890192019B0132
:10010000A401AD01C801EB01100235025A027502CB
:100110009002AB02BA02D802F702060321033C03A5
:1001200057036603C404C804D004D804E004EA04F6
:10013000F204FB04570FCE0F980F800F190F190F01
:10014000520F190F520F190F520F520F520F190F52
:10015000520F520FED1011241FBECFEFD1E2DEBFC0
:10016000CDBF00E00CBF12E0A0E0B2E0E0E1F8E2B9
:1001700000E00BBF02C007900D92AE36B107D9F771
:1001800028E0AEE6B2E001C01D92AB3DB207E1F758
:1001900010E0CBEAD0E000E006C021970109802FF3
:1001A000FE010E949B11CA3AD10780E00807A9F717
:1001B0000E94D40B0C94061423CF0F931F93CF935C
:1001C000DF93EC01D7D6088119812A813B8106177C
:1001D00017072807390770F4DC01CB01801B910B4E
:1001E000A20BB30B21E0853F9140A105B10518F4A6
:1001F00020E001C021E0822FDF91CF911F910F916C
:100200000895862F90E0FC01B497E031F10508F0E5
:10021000B0C08827EE58FF4F8F4F0C949B1183EF8F
:1002200096E0CBDF8111109235078091B106909155
:10023000B2068E7F9AC087EF96E0BFDF81111092E1
:1002400036078091B1069091B2068D7F8EC08BEFFC
:1002500096E0B3DF8111109238078091B10690913A
:10026000B2068B7F82C08FEF96E0A7DF81111092DC
:1002700037078091B1069091B206877F76C083E000
:1002800097E09BDF8091B1069091B2068F7E6DC0A2
:1002900087E097E092DF8091B1069091B2068F7D62
:1002A00064C08BE097E089DF8091B1069091B2063F
:1002B0008F7B5BC08FE097E080DF80913307909168
:1002C0003407019721F4109234071092330780917C
:1002D000B1069091B2068F7748C083E197E06DDF59
:1002E000109239078091B1069091B2069E7F3DC071
:1002F00010923A078091B1069091B2069D7F35C069
:100300008BE197E05ADF8091B1069091B2069B7F16
:100310002CC08FE197E051DF8091B1069091B20639
:10032000977F23C083E297E048DF8091B1069091E8
:10033000B2069F7E1AC087E297E03FDF8091B10648
:100340009091B2069F7D11C08BE297E036DF8091DD
:10035000B1069091B2069F7B08C08FE297E02DDF37
:100360008091B1069091B2069F779093B2068093E8
:10037000B1060895862F90E0FC01B497E031F105B5
:1003800008F0C2C18827EE57FF4F8F4F0C949B1186
:10039000F1D56093F3067093F4068093F50690937D
:1003A000F60680913307909134078130910529F446
:1003B000109289021092880208C0892B31F4909122
:1003C000350781E08927809335078091B1069091A8
:1003D000B206816095C1CED56093F7067093F8069A
:1003E0008093F9069093FA06809133079091340731
:1003F0008130910539F482E090E0909389028093F6
:10040000880208C0892B31F49091360781E0892752
:10041000809336078091B1069091B206826070C1D8
:10042000A9D56093FB067093FC068093FD0690931C
:10043000FE0680913307909134078130910539F49D
:1004400084E090E0909389028093880208C0892B11
:1004500031F49091380781E08927809338078091A3
:10046000B1069091B20684604BC184D56093FF06BB
:1004700070930007809301079093020780913307E0
:10048000909134078130910539F485E090E09093A4
:1004900089028093880208C0892B31F49091370734
:1004A00081E08927809337078091B1069091B20649
:1004B000886026C15FD5609303077093040780931B
:1004C00005079093060780913307909134070197B1
:1004D00031F487E090E090938902809388028091C4
:1004E000B1069091B20680610BC144D560930707B5
:1004F000709308078093090790930A078091330748
:1005000090913407019731F489E090E0909389024B
:10051000809388028091B1069091B2068062F0C00B
:1005200029D560930B0770930C0780930D07909368
:100530000E078091330790913407019731F48BE0D7
:1005400090E090938902809388028091B106909107
:10055000B2068064D5C00ED560930F077093100764
:1005600080931107909312078091B1069091B20683
:100570008068C6C0FFD460931307709314078093FC
:1005800015079093160780913307909134078130B7
:10059000910529F4909389028093880203C081E039
:1005A000809339078091B1069091B2069160A8C0FE
:1005B000E1D46093170770931807809319079093FD
:1005C0001A078091330790913407019739F483E03B
:1005D00090E0909389028093880203C081E0809329
:1005E0003A078091B1069091B206926089C0C2D458
:1005F00060931B0770931C0780931D0790931E0741
:100600008091B1069091B20694607AC0B3D46093A1
:100610001F077093200780932107909322078091F2
:10062000330790913407019731F486E090E090937E
:100630008902809388028091B1069091B2069860F9
:100640005FC098D460932307709324078093250795
:10065000909326078091330790913407019731F4E6
:1006600088E090E090938902809388028091B1069F
:100670009091B206906144C07DD460932707709337
:1006800028078093290790932A0780913307909138
:100690003407019731F48AE090E0909389028093C7
:1006A00088028091B1069091B206906229C062D40E
:1006B00060932B0770932C0780932D0790932E0740
:1006C0008091B1069091B20690641AC053D46093A1
:1006D0002F077093300780933107909332078091F2
:1006E000330790913407892B31F481E090E09093A7
:1006F0003407809333078091B1069091B2069068D9
:100700009093B2068093B1060895CF93DF93EC01E6
:1007100098A9DE0120E030E0291730F5F9018C912D
:100720002F5F3F4F13968613F7CF9F01220F331F82
:10073000E20FF31FEC0FFD1F608171818281292F71
:1007400030E021503109D901AA0FBB1F2A0F3B1FEE
:10075000DE01A20FB31F2D913D914C912083318377
:100760004283915098AB03C060E070E080E0DF917D
:10077000CF910895FF920F931F93CF93DF93EC01D6
:1007800028A9222349F1FC01329680E09081915002
:100790009D3F08F490838F5F33968213F7CF062F27
:1007A00010E088A91817C0F4E12FF0E0CF01880FFE
:1007B000991FE80FF91FEC0FFD1F828181110AC0FC
:1007C000F080202F40E06F2D80E890E064D66F2D00
:1007D000CE019BDF1F5FE5CFDF91CF911F910F917E
:1007E000FF900895FF920F931F93CF93DF93CDB7A0
:1007F000DEB72B970FB6F894DEBF0FBECDBF6AE011
:100800008FEF93E0B7DF6CE081EA93E0B3DF66E05F
:1008100086EE92E0AFDF61E083E995E0ABDF67E071
:1008200085E296E0A7DF62E08EE796E0A3DFF09036
:1008300056058091590590915A05029709F047C0D5
:1008400080918A0266E00E948F11911140C06091F0
:100850008B0270918C0280918D0290918E0220E427
:1008600030E040E050E00E94CB13862F8F70E62FDF
:10087000E295EF70F0E0EC55FB4FE08190E1E99FED
:10088000F0011124E80FF11DEC58FB4F908180918D
:10089000580581119F5F8BE0EFE7F2E0DE011196D2
:1008A00001900D928A95E1F7198180918802180FC5
:1008B0008CE0989F100D112461E083E995E0F1D35D
:1008C00006E023E935E041E06F2D812F2DD48091A2
:1008D0008A0266E00E948F11911113C080918B02F1
:1008E00090918C02A0918D02B0918E028F70992709
:1008F000AA27BB27892B8A2B8B2B19F486EE92E033
:10090000D0D380918A028F5F863018F480938A0258
:100910001EC010928A0280918B0290918C02A0914D
:100920008D02B0918E02BC01CD016F5F7F4F8F4F62
:100930009F4F20E73AEA43E050E00E94CB136093D8
:100940008B0270938C0280938D0290938E022B9673
:100950000FB6F894DEBF0FBECDBFDF91CF911F91D0
:100960000F91FF900895FC01108281E08183128233
:1009700083830895DC011C92E0E0F0E08827EE56C6
:10098000FF4F8F4F0C949B1111961C9211971CC016
:1009900011961C92119712961C92129781E033C007
:1009A00011961C92119781E012968C9312972BC08E
:1009B00011961C92119781E012968C93129707C0A2
:1009C00081E011968C93119712961C9212971396B0
:1009D0001C92089581E011968C93119712961C92A7
:1009E000129711C081E011968C93119712961C9268
:1009F000129782E008C081E011968C93119792E0E3
:100A000012969C93129713968C930895CF93DF932D
:100A1000643309F439C1E8F4663109F4D6C078F4D6
:100A2000643109F498C008F0C3C06A3009F042C1CB
:100A30002AE06AE080EB90E0DF91CF912CC56D3128
:100A400009F4E5C06E3109F409C16C3109F032C115
:100A5000C9C0693409F442C060F4663308F42AC19D
:100A6000683308F425C1683409F024C14093920525
:100A700021C16D3451F018F46B3499F11BC16B3501
:100A800009F451C06D35E1F015C181E0411101C09B
:100A900080E08093E1024093E5024A3028F410920E
:100AA000E3021092E20206C1403418F481E090E0C3
:100AB00002C082E090E09093E3028093E202FAC0E9
:100AC000403438F481E090E090932406809323062C
:100AD000F1C01092240610922306ECC040935805F2
:100AE000E9C0842F8695805C809355054A3028F4B0
:100AF00010925A0510925905DDC0483218F484E06E
:100B000090E004C0403538F483E090E090935A05BB
:100B100080935905CFC0483718F482E090E0F6CFB3
:100B200081E090E0F3CF642F70E080E090E00E94DD
:100B3000961220E030E040EC51E40E94F51220E0F3
:100B400030E04EEF52E40E94A3110E940B12645F4A
:100B50006093C505AFC0411121C0C8E0D2E02AE0D2
:100B600040E0688180EB90E096D4239682E0CF321B
:100B7000D807A9F720E030E040E05FE360E070E0F4
:100B8000CB010E94901287FF03C08BEE93E002C05E
:100B900088EF93E0EFDEDF91CF91DFC4EBD160937C
:100BA000B3067093B4068093B5069093B60682C0E0
:100BB000442309F47FC0DED16093B7067093B80672
:100BC0008093B9069093BA0675C0442309F472C0A5
:100BD000D1D16093BB067093BC068093BD06909301
:100BE000BE0668C0411109C080E190E09093C40244
:100BF0008093C302DF91CF911AC5BCD16093D30615
:100C00007093D4068093D5069093D60653C04111B5
:100C10001BC020E030E040E05FE360E070E0CB012B
:100C20000E94901287FF0AC01092BF021092C00269
:100C30001092C10281E08093C20215C08FEB92E056
:100C400092DE88E090E011C095D16093D706709352
:100C5000D8068093D9069093DA062CC041110AC0B9
:100C60008FEB92E080DE80E190E09093C40280936D
:100C7000C30220C07FD16093DB067093DC068093B3
:100C8000DD069093DE0616C0411108C088EE94E0A0
:100C900071DE86E394E0DF91CF916CCE6BD16093EF
:100CA000E3067093E4068093E5069093E60602C09F
:100CB000442361F3DF91CF910895DC01ED91FC9124
:100CC0000190F081E02D1994FC01918D828D98178F
:100CD00061F0828DDF01A80FB11D5D968C91928D20
:100CE0009F5F9F73928F90E008958FEF9FEF08951D
:100CF00083E897E0DAD021E0892B09F420E0822F05
:100D00000895EF92FF920F931F93CF93DF93EC011F
:100D100081E0888F9B8D8C8D981305C0E889F989B7
:100D2000808185FD23C0F62E0B8D10E00F5F1F4FD5
:100D30000F731127E02E8C8DE8120BC00FB607FC45
:100D4000FACFE889F989808185FFF5CFCE01F1D00E
:100D5000F2CF8B8DFE01E80FF11DE35AFF4FF082B9
:100D60000B8FEA89FB898081806207C0EE89FF8949
:100D70006083E889F98980818064808381E090E0E4
:100D8000DF91CF911F910F91FF90EF900895CF9336
:100D9000DF93EC01888D8823C1F0EA89FB8980818B
:100DA00085FD05C0A889B9898C9186FD0EC00FB656
:100DB00007FCF5CF808185FFF2CFA889B9898C9196
:100DC00085FFEDCFCE01B5D0E8CFDF91CF9108956B
:100DD0001F920F920FB60F9211240BB60F922F9302
:100DE0003F934F935F936F937F938F939F93AF93B3
:100DF000BF93EF93FF9383E897E09BD0FF91EF9130
:100E0000BF91AF919F918F917F916F915F914F9122
:100E10003F912F910F900BBE0F900FBE0F901F9020
:100E200018951F920F920FB60F9211240BB60F92C6
:100E30002F938F939F93EF93FF93E0919307F091FC
:100E400094078081E0919907F0919A0782FD12C082
:100E5000908180919C078F5F8F7320919D078217EF
:100E600051F0E0919C07F0E0ED57F84F958F80939B
:100E70009C0701C08081FF91EF919F918F912F91ED
:100E80000F900BBE0F900FBE0F901F901895FC0196
:100E9000918D828D981731F0828DE80FF11D858D2F
:100EA00090E008958FEF9FEF0895FC01918D228DC2
:100EB000892F90E0805C9F4F821B91098F73992747
:100EC000089580E090E0892B19F012DF811125C090
:100ED00080E090E0892B41F080E090E0892B21F0C8
:100EE0000E94000081111CC080E090E0892B41F03D
:100EF00080E090E0892B21F00E940000811113C056
:100F000080E090E0892BA1F080E090E0892B81F0D7
:100F10000E94000081110AC008950E940000D8CFED
:100F20000E940000E1CF0E940000EACF0C94000074
:100F30000895FC01848DDF01A80FB11DA35ABF4F96
:100F40002C91848D90E001968F739927848FA689C8
:100F5000B7892C93A089B1898C9180648C93938DEF
:100F6000848D981306C00288F389E02D80818F7DDF
:100F7000808308952FB7F89460917B0270917C0272
:100F800080917D0290917E022FBF08951F920F9253
:100F90000FB60F9211242F933F938F939F93AF938C
:100FA000BF9380917B0290917C02A0917D02B091D1
:100FB0007E0230917A0223E0230F2D3720F4019630
:100FC000A11DB11D05C026E8230F0296A11DB11D6C
:100FD00020937A0280937B0290937C02A0937D02FF
:100FE000B0937E028091760290917702A091780270
:100FF000B09179020196A11DB11D80937602909364
:101000007702A0937802B0937902BF91AF919F913C
:101010008F913F912F910F900FBE0F901F901895B9
:101020006D3F71053CF46A3F710554F4683F7105EA
:1010300089F406C09B012E5F31092230310550F43E
:10104000DC018D919C91DC01ED91FC910190F0818E
:10105000E02D1994089587FF0DC09CE0980F923001
:1010600048F0982F9B7F993F29F0803F08F4807FBC
:1010700090E0089580E090E008959C018F7C803896
:10108000910561F0203D310549F081E0203E3105B8
:1010900039F0203C310521F080E0089581E0089589
:1010A00008951F93CF93DF93EC01162F98A99923EE
:1010B000B9F0E92FF0E09F01220F331FE20FF31F79
:1010C000EC0FFD1F6081915098AB1082118212824B
:1010D000662331F0212F40E080E890E0DCD1E6CFBC
:1010E000DF91CF911F9108956AE08FEF93E0D9DFF0
:1010F0006CE081EA93E0D5DF66E086EE92E0D1DF36
:1011000061E083E995E0CDDF67E085E296E0C9DF45
:1011100062E08EE796E0C5DFEFE7F2E01486158621
:101120001686178613860895EF92FF920F931F93EA
:10113000CF93DF93182FE62EF42EE90198A9F90139
:10114000329680E0891739F020812E3F09F4108211
:101150008F5F3396F7CF612FCE01D7DA662331F058
:101160002F2D40E0612F80E890E095D12F2D4E2D5E
:10117000612F80E990E08FD148A9DE0180E090E006
:10118000841770F4FC012C91019613962113F8CF6B
:10119000CF01880F991FE80FF91FEC0FFD1F0FC03B
:1011A00081E0840F88AB50E0FA01EE0FFF1F4E0F75
:1011B0005F1FFE01E40FF51F108380E4818302832B
:1011C000DF91CF911F910F91FF90EF9008950F93B2
:1011D0001F93CF93DF93CDB7DEB7CC5BD4400FB670
:1011E000F894DEBF0FBECDBF10927F07109280072C
:1011F000109281071092820710923D0710923E07CD
:1012000010923F071092400768EB7BE080E090E08F
:101210004AD283E897E090937E0780937D07E09120
:101220009307F091940702E00083E0918F07F0911B
:1012300090071082E0919107F091920780E18083FE
:1012400010929B07E0919707F091980716E01083A2
:10125000E0919507F0919607808180618083E0910D
:101260009507F0919607808188608083E0919507CB
:10127000F0919607808180688083E0919507F091D6
:10128000960780818F7D808375DE60933D07709324
:101290003E0780933F07909340076BE572E0809193
:1012A0007D0790917E0724D26AE070E080E090E0B4
:1012B000FAD181E0809351078AEB91E09093230863
:1012C0008093220881E091E0909321088093200888
:1012D00082EF93E0909339088093380886E095E098
:1012E000909327088093260884E798E090933F081E
:1012F00080933E08E0914408F0914508A089B189A7
:101300000C93A485B5851C92A685B7858FE38C9335
:10131000108EA489B5891C93A289B3898C918061B0
:101320008C93A289B3898C9188608C93A289B389AC
:101330008C9180688C930288F389E02D80818F7D69
:101340008083109246081092480810924708109225
:101350004F0810924E0810924D0810924C088FEFD3
:101360009FEF909351088093500890935308809377
:1013700052081092DA0810925708109256081092EC
:10138000550810925808109259088091540881709D
:10139000826081608093540880917B00877F809376
:1013A0007B0080E480937C0080917A00806480934D
:1013B0007A0080917A0086FDFCCF809178002091A0
:1013C000790090E0922B0E9485128CEB94E0FE0154
:1013D0003196DF019C011D9221503040E1F7AFE7CB
:1013E000B2E001900D920197E1F72AE040E06AE057
:1013F00080EB90E050D020E030E040E05FE360E040
:1014000070E0CB010E94901287FF03C08BEE93E047
:1014100002C088EF93E0AEDAA0D009D188EE94E064
:10142000A9DA86E394E0C454DB4F0FB6F894DEBF2C
:101430000FBECDBFDF91CF911F910F919BCACF926D
:10144000DF92EF92FF920F931F93CF93DF936C0184
:101450007A018B01C0E0D0E0CE15DF0589F0D8011C
:101460006D918D01D601ED91FC910190F081E02DFF
:10147000C6011995892B11F47E0102C02196ECCF8B
:10148000C701DF91CF911F910F91FF90EF90DF90F7
:10149000CF900895ECD7EF92FF921F93CF93DF93F5
:1014A0001F92CDB7DEB77C01162F2150203108F0F6
:1014B0004DC080E8E816F1040CF448C0A1EEEA162D
:1014C000F104ACF58091440890914508DC01ED9160
:1014D000FC916E2D622B0190F081E02D49831995CE
:1014E0008091440890914508DC01ED91FC91612FB9
:1014F0006F770190F081E02D1995E894E4F8498127
:10150000B0ECEB16F10411F180914408909145087C
:10151000DC01ED91FC91642F6F770190F081E02D5B
:101520000F90DF91CF911F91FF90EF901994C70119
:10153000885F9109089750F4B70184E498E00F9010
:10154000DF91CF911F91FF90EF906ACD0F90DF91C7
:10155000CF911F91FF90EF900895CF93DF93CDB778
:10156000DEB728970FB6F894DEBF0FBECDBF10923E
:1015700018031092170380E1809319031092280337
:10158000109227038093290310922B0310922A03B1
:1015900080932C0310922E0310922D0380932F031F
:1015A00086E393E0E7D987E793E0E4D920E030E0F1
:1015B00040E85EE360E070E0CB01B2D787FF07C090
:1015C00080E593E0D7D98DE593E0D4D921C020E020
:1015D00030E040E05FE360E070E0CB01A1D787FF3F
:1015E0001AC088E0EFE2F2E0DE01119601900D9260
:1015F0008A95E1F7FE013196DF0188E08E0F908138
:101600002C9121939C938E13FACF8A818093560359
:1016100010927E0303C081E080937E0328960FB66C
:10162000F894DEBF0FBECDBFDF91CF910895CF9369
:10163000DF93CDB7DEB72D970FB6F894DEBF0FBEA0
:10164000CDBF1A8219821C821B821E821D82CE018E
:10165000079690D980E48D8780E190E09C878B8706
:101660008DE0FE013196A3EDB2E001900D928A95D6
:10167000E1F789ED92E07ED91092C9021092C8027A
:101680001092CB021092CA028CEC92E06CD980E1ED
:101690008093D2022D960FB6F894DEBF0FBECDBF59
:1016A000DF91CF9108958F929F92AF92BF92CF9288
:1016B000DF92EF92FF926B017C015CDC4B015C01DD
:1016C000C60ED71EE81EF91E55DC681579058A0579
:1016D0009B0528F0C616D706E806F906A8F7FF907E
:1016E000EF90DF90CF90BF90AF909F908F90089534
:1016F0006115710579F0FB0101900020E9F7319740
:10170000AF01461B570BDC01ED91FC910280F38188
:10171000E02D199480E090E008954F925F926F92CF
:101720007F92EF92FF920F931F93CF93DF93CDB7EA
:10173000DEB7A1970FB6F894DEBF0FBECDBF7C0118
:10174000FA01CB0119A2223008F42AE08E010F5DC4
:101750001F4F422E512C612C712CBF01A30192010D
:10176000F8D7F901CA01015011096A3014F4605D1B
:1017700001C0695CD8016C93232B242B252B69F7BE
:10178000B801C701B5DFA1960FB6F894DEBF0FBE52
:10179000CDBFDF91CF911F910F91FF90EF907F9080
:1017A0006F905F904F900895CF93DF931F92CDB7C6
:1017B000DEB7789484B5826084BD84B5816084BDD1
:1017C00085B5826085BD85B5816085BD80916E00DF
:1017D000816080936E001092810080918100826010
:1017E000809381008091810081608093810080914D
:1017F00080008160809380008091B100846080933C
:10180000B1008091B00081608093B0008091910020
:10181000826080939100809191008160809391001B
:10182000809190008160809390008091A1008260FF
:101830008093A1008091A10081608093A10080919C
:10184000A00081608093A00080912101826080933C
:1018500021018091210181608093210180912001EB
:1018600081608093200180917A00846080937A0067
:1018700080917A00826080937A0080917A00816002
:1018800080937A0080917A00806880937A00109229
:10189000C1009DDC64EF862E99249394A12CB12C79
:1018A00000E810E0DD24D39472E0272E312CEE24E2
:1018B000E394F12C5FDB672B682B692B39F45ADB3F
:1018C000623071058105910508F4F8C053DB60931F
:1018D0007202709373028093740290937502209148
:1018E0006E0230916F024091700250917102621746
:1018F00073078407950740F460936E0270936F023C
:10190000809370029093710240906E0250906F022B
:1019100060907002709071029B01AC01241935092E
:101920004609570929013A013AEF43165104610467
:10193000710408F4C3C060936E0270936F028093C9
:101940007002909371028092490790924A07A09288
:101950004B07B0924C0710924D0710924E07109211
:101960004F07109250078091410790914207A09134
:101970004307B09144078093450790934607A0938F
:101980004707B0934807F6DA609341077093420720
:101990008093430790934407EDDA60933D0770937B
:1019A0003E0780933F0790934007E4DA2B013C0108
:1019B00067E472E080917D0790917E0799DE2AE0CE
:1019C00041E050E060E070E080917D0790917E07FB
:1019D000A4DE6EE472E080917D0790917E0788DE40
:1019E0002AE0B301A20180917D0790917E0795DEE8
:1019F00060E572E080917D0790917E0779DE8091AD
:101A0000410790914207A0914307B0914407B30169
:101A1000A201481B590B6A0B7B0B2AE080917D07C2
:101A200090917E077ADE60E572E080917D0790916B
:101A30007E075EDE40914107509142076091430767
:101A4000709144078091450790914607A091470700
:101A5000B0914807481B590B6A0B7B0B2AE0809119
:101A60007D0790917E0759DE62E572E080917D07E7
:101A700090917E073DDE7EDAAB01BC012AE08091C9
:101A80007D0790917E0749DE60907D0770907E070C
:101A900064E572E0C3012CDE6AE672E0C30128DE71
:101AA00065E070E080E090E0FEDD64DA609341077D
:101AB000709342078093430790934407C090460871
:101AC00040E14C1508F4B5C1809144089091450857
:101AD000DC01ED91FC910480F581E02D1995892BB5
:101AE00009F4A7C18091440890914508DC01ED916B
:101AF000FC910680F781E02D19952C018B7F893FA1
:101B000009F497C120914E0830914F0821153105F5
:101B100009F0AAC04092490870904708872D9BDAC7
:101B2000ACDA882351F047FC08C070924908409213
:101B30004A08F0924F08E0924E0870904908872DAD
:101B40008ADA813F910509F45EC074F5803B910506
:101B500009F45EC06CF48039910509F459C0803AEB
:101B6000910509F455C08038910509F0D9C050C0DD
:101B7000803D910509F447C02CF4803C910509F49F
:101B800042C0CEC0803E910509F442C0803F91051D
:101B900009F0C6C010934D0800934C0810924708F6
:101BA00030EF30935A083AC0883F9105B9F044F4B9
:101BB000833F910541F164F1863F910579F0B0C012
:101BC0008A3F91050CF4ACC08D3F91053CF09C011F
:101BD0002E5F31092230310508F0A2C090935708DA
:101BE0008093560810925508109258081092590880
:101BF000D092DA0810924F0810924E0810924D08B9
:101C000010924C08F1C030924D0820924C0806C04A
:101C100023E030E030934D0820934C0820914E088B
:101C200030914F0840914C0850914D084150510956
:101C30002417350708F4D1C09093570880935608AD
:101C4000872D8F708F5F8093550880914A0880930D
:101C500058081092590810924F0810924E0810928E
:101C60004D0810924C0821C047FE44C0C20199277C
:101C70008D3F910554F48A3F91056CF4873F91059F
:101C8000B9F0883F9105B1F506C0AC014E5F51092E
:101C90004230510578F5909357088093560810927A
:101CA00058081092590810925508D092DA089CC032
:101CB00080915A08803FA1F5C9010196F901E05EC3
:101CC000F74F47EF42AFA0EFB0E0B0935708A093B3
:101CD0005608809358089093590810925508D0924E
:101CE000DA0810924F0810924E0810924D08109288
:101CF0004C0870C080914908F901E05EF74F803FC1
:101D0000D1F442AE60904C0870904D08C301019729
:101D10002817390708F461C020914908203F69F469
:101D200010924F0810924E0810924D0810924C08D5
:101D3000109247087EC041A6E5CF822F29838BD918
:101D40002C01909357088093560897D929818823AE
:101D500031F0822F8F708F5F8093550802C01092F0
:101D6000550880914A0880935808B3E06B167104B7
:101D700019F480914B0801C080E0809359081092BB
:101D80004F0810924E0810924D0810924C08D092B5
:101D9000DA0830EB43165104D1F06CF450E94516E3
:101DA0005104A9F080EA4816510489F0A0E84A16C7
:101DB000510481F40CC0B0ED4B16510441F030EEEB
:101DC0004316510421F040EC4416510419F42093B9
:101DD00047080AC01092470807C02F5F3F4F309353
:101DE0004F0820934E0825C08091560890915708BF
:101DF0008039910529F480915908882309F4F3C0AA
:101E000080915608909157089C012058310921363D
:101E1000310508F0EDC0209155082C1509F4E8C0F3
:101E2000CC2009F4E5C030915408432F417030FDB7
:101E300002C047D83FCD832F8E7FD9F3A09156089B
:101E4000B0915708CD018058910981369105F8F479
:101E5000209155082C1519F041E0C11040E036954D
:101E6000832F90E08230910531F08330910531F07D
:101E70000197F9F605C04423E1F202C04111D9CF20
:101E80004091590860915808CD0105DBD2CFFD0182
:101E9000E05FF109E031F10560F68827E656FF4F73
:101EA0008F4F49C2BD0184E498E0BAD8C2CF809177
:101EB000590890E0582E442480915808482AB1E8E7
:101EC0004B16510418F030E8432E512C612C712C24
:101ED0006414750409F4ADCF8091440890914508CD
:101EE000DC01ED91FC91D301A05EB74F0190F08130
:101EF000E02DDA966C911995BFEF6B1A7B0AE8CF4B
:101F0000C09058088091440890914508DC01ED91FB
:101F1000FC910190F081E02D63EF19956C2D6F77A6
:101F200070E080914408909145080E945D0681CF41
:101F300090915908B0E89B9F300111248091580876
:101F4000682A8091440890914508DC01ED91FC914C
:101F50000190F081E02D62EF1995809144089091F5
:101F60004508DC01ED91FC91B3016F777727019073
:101F7000F081E02D19958091440890914508DC018D
:101F8000ED91FC91B301660F672F661F770B71957A
:101F90006F7777270190F081E02D23C0809158085A
:101FA0008770B0E18B9FC0011124909159089F70F8
:101FB000C92EC82A8091440890914508DC01ED9112
:101FC000FC910190F081E02D61EF1995809144081A
:101FD00090914508DC01ED91FC910190F081E02D9C
:101FE0006C2D199526CF109357080093560808CFEB
:101FF000813F9105C1F4E0913008F09131080CC0A7
:102000008B3F91050CF0C8C0833F910509F0A5C036
:10201000E0913408F0913508309709F404CF8091AD
:102020005808199500CF823F91050CF080C0803B85
:102030009105C1F4E0912608F091270808C0803886
:10204000910509F0F0CEE0912008F0912108309739
:1020500009F4E9CE409159086091580880915508DB
:102060001995E1CE813B910584F48039910529F4DD
:10207000E0912208F0912308EACF803A9105F9F621
:10208000E0912408F0912508E2CF803D910529F4E4
:10209000E0912A08F0912B080BC0813D91058CF44A
:1020A000803C910509F0BFCEE0912808F091290805
:1020B000309709F4B8CE6091580880915508199569
:1020C000B2CE803E9105B9F4E0912C08F0912D0834
:1020D000309709F4A8CE609159086F7750E8659F52
:1020E000B0011124809158088F77682B705280912D
:1020F0005508199598CE803F910509F094CEE0914E
:102100002E08F0912F08309709F48DCE6091590870
:1021100070E0762F662780915808682B613871052A
:1021200010F060E870E08AE598E019957CCE8A3F6F
:10213000910509F065CFE0913A08F0913B0808C09D
:10214000883F910509F06FCEE0913808F091390889
:10215000309709F468CE199566CE833F9105A4F4B3
:10216000E0913208F0913308309709F45CCE809109
:1021700059088F77A0E88A9FC00111242091580840
:102180002F77822B19954FCE863F9105C9F6E091A6
:102190003608F0913708DCCF8C3F910529F4E091A7
:1021A0003E08F0913F08D4CF8C3F91052CF4E0918C
:1021B0003C08F0913D08CCCF8E3F910529F4E09189
:1021C0004008F0914108C4CF8F3F910509F02BCE14
:1021D000E0914208F0914308BBCFCF93DF93A3E88F
:1021E000B7E013961C921E92129748EE53E060E0FF
:1021F00070E014964D935D936D937C9317978BE3EA
:1022000092E011969C938E9385EC90E01D969C93A2
:102210008E931C9784EC90E01F969C938E931E9750
:1022200080EC90E051969C938E93509781EC90E0D7
:1022300053969C938E93529782EC90E055969C9384
:102240008E93549786EC90E057969C938E93569776
:1022500059961C9259975A961C925A975B961C92C3
:102260005B975C961C925C97EBE3F7E01682178213
:102270001086118612861386148615861686178692
:10228000108A118A128A138A148A158AE0E2F8E009
:10229000B5A3A4A316A217A210A615A614A617A646
:1022A00016A68FEF9FEF91AB80AB93AB82AB83E031
:1022B0008093540815AA17AA16AA10AE11AE109250
:1022C000DA0880E8AAE5B8E0ED0119928A95E9F705
:1022D0001182108213821282158214821782168252
:1022E0001186108613861286158614861786168622
:1022F000118A108A138A128A158A148A178A168AF2
:10230000118E108E138E128E158E148E178E168EC1
:1023100011A210A213A212A2DF91CF910895991BCE
:1023200079E004C0991F961708F0961B881F7A95CC
:10233000C9F780950895EE0FFF1F881F8BBF079088
:10234000F691E02D19940CD0CAC1C2D140F0B9D198
:1023500030F021F45F3F19F0ABC15111F4C1AEC1AF
:10236000CFD198F39923C9F35523B1F3951B550B9E
:10237000BB27AA2762177307840738F09F5F5F4F58
:10238000220F331F441FAA1FA9F333D00E2E3AF099
:10239000E0E830D091505040E695001CCAF729D0B3
:1023A000FE2F27D0660F771F881FBB1F2617370702
:1023B0004807AB07B0E809F0BB0B802DBF01FF2732
:1023C00093585F4F2AF09E3F510568F071C1BBC121
:1023D0005F3FECF3983EDCF3869577956795B7956C
:1023E000F7959F5FC9F7880F911D9695879597F987
:1023F0000895E1E0660F771F881FBB1F6217730700
:102400008407BA0720F0621B730B840BBA0BEE1F14
:1024100088F7E09508957CD188F09F5790F0B92F08
:102420009927B751A0F0D1F0660F771F881F991F29
:102430001AF0BA95C9F712C0B13081F083D1B1E07A
:10244000089580C1672F782F8827B85F39F0B93F8A
:10245000CCF3869577956795B395D9F73EF490952B
:102460008095709561957F4F8F4F9F4F089581E0C4
:1024700090E0F894CBC18F929F92AF92BF92CF928F
:10248000DF92EF92FF92CF93DF93EC016881798125
:102490008A819B81611571058105910521F464E2B2
:1024A00079ED8BE597E02DE133EF41E050E073D11A
:1024B00049015A019B01AC01A7EAB1E488D16B0143
:1024C0007C01ACEEB4EFA50194018DD1DC01CB0110
:1024D0008C0D9D1DAE1DBF1DB7FF03C00197A10947
:1024E000B04888839983AA83BB839F77DF91CF917C
:1024F000FF90EF90DF90CF90BF90AF909F908F9024
:102500000895B9CF84E092E0B6CFA0E0B0E0809328
:10251000040290930502A0930602B0930702089567
:1025200040D008F481E00895E89409C097FB3EF498
:1025300090958095709561957F4F8F4F9F4F992310
:10254000A9F0F92F96E9BB279395F695879577958E
:102550006795B795F111F8CFFAF4BB0F11F460FF4E
:102560001BC06F5F7F4F8F4F9F4F16C0882311F0A6
:1025700096E911C0772321F09EE8872F762F05C0BA
:10258000662371F096E8862F70E060E02AF09A9555
:10259000660F771F881FDAF7880F9695879597F94A
:1025A0000895990F0008550FAA0BE0E8FEEF1616E4
:1025B0001706E807F907C0F012161306E407F50737
:1025C00098F0621B730B840B950B39F40A2661F0AB
:1025D000232B242B252B21F408950A2609F4A1404E
:1025E000A6958FEF811D811D08950BD078C069D00D
:1025F00028F06ED018F0952309F05AC05FC011245E
:10260000A2C07ED0A0F3959FD1F3950F50E0551F47
:10261000629FF001729FBB27F00DB11D639FAA2737
:10262000F00DB11DAA1F649F6627B00DA11D661F86
:10263000829F2227B00DA11D621F739FB00DA11DA7
:10264000621F839FA00D611D221F749F3327A00D61
:10265000611D231F849F600D211D822F762F6A2FFD
:1026600011249F5750408AF0E1F088234AF0EE0F82
:10267000FF1FBB1F661F771F881F91505040A9F78F
:102680009E3F510570F014C05EC05F3FECF3983E72
:10269000DCF3869577956795B795F795E7959F5FF6
:1026A000C1F7FE2B880F911D9695879597F9089590
:1026B00097F99F6780E870E060E008959FEF80ECF5
:1026C000089500240A941616170618060906089598
:1026D00000240A9412161306140605060895092EFE
:1026E0000394000C11F4882352F0BB0F40F4BF2B6D
:1026F00011F460FF04C06F5F7F4F8F4F9F4F0895AD
:1027000057FD9058440F551F59F05F3F71F04795A2
:10271000880F97FB991F61F09F3F79F08795089587
:10272000121613061406551FF2CF4695F1DF08C0A6
:10273000161617061806991FF1CF869571056105C3
:1027400008940895E894BB2766277727CB0197F96B
:102750000895A1E21A2EAA1BBB1BFD010DC0AA1FE2
:10276000BB1FEE1FFF1FA217B307E407F50720F0FA
:10277000A21BB30BE40BF50B661F771F881F991F75
:102780001A9469F760957095809590959B01AC01BE
:10279000BD01CF010895052E97FB16F400940FD0CC
:1027A00057FD05D0D6DF07FC02D046F408C050958F
:1027B0004095309521953F4F4F4F5F4F089590952D
:1027C0008095709561957F4F8F4F9F4F08950FD0E3
:1027D000A59F900DB49F900DA49F800D911D112475
:1027E0000895B7FFF4CFF3DF821B930B0895A29FE8
:1027F000B001B39FC001A39F700D811D1124911DD5
:10280000B29F700D811D1124911D0895F894FFCF82
:102810001000100001000000087E7F0910400B101E
:10282000400C007F0D007F107E7F11007F12004062
:1028300013407F387E7F39007F3A00403B004006DE
:1028400007080A0C0E0F100000000081061F0A5531
:102850000764064707C706564D4450455F003A32A5
:102860003A007C005F564D44504500564D4450564A
:0E2870005F317C315F564D4450560D0A00001A
:020000023000CC
:10E000000D9489F10D94B2F10D94B2F10D94B2F129
:10E010000D94B2F10D94B2F10D94B2F10D94B2F1F0
:10E020000D94B2F10D94B2F10D94B2F10D94B2F1E0
:10E030000D94B2F10D94B2F10D94B2F10D94B2F1D0
:10E040000D94B2F10D94B2F10D94B2F10D94B2F1C0
:10E050000D94B2F10D94B2F10D94B2F10D94B2F1B0
:10E060000D94B2F10D94B2F10D94B2F10D94B2F1A0
:10E070000D94B2F10D94B2F10D94B2F10D94B2F190
:10E080000D94B2F10D94B2F10D94B2F10D94B2F180
:10E090000D94B2F10D94B2F10D94B2F10D94B2F170
:10E0A0000D94B2F10D94B2F10D94B2F10D94B2F160
:10E0B0000D94B2F10D94B2F10D94B2F10D94B2F150
:10E0C0000D94B2F10D94B2F10D94B2F10D94B2F140
:10E0D0000D94B2F10D94B2F10D94B2F10D94B2F130
:10E0E0000D94B2F141546D656761323536300041AF
:10E0F000726475696E6F206578706C6F72657220DE
:10E1000073746B3530305632206279204D4C530099
:10E11000426F6F746C6F616465723E004875683F52
:10E1200000436F6D70696C6564206F6E203D200048
:10E130004350552054797065202020203D20005FF9
:10E140005F4156525F415243485F5F3D2000415658
:10E1500052204C696243205665723D20004743437C
:10E160002056657273696F6E203D20004350552024
:10E1700049442020202020203D20004C6F7720663D
:10E18000757365202020203D20004869676820665F
:10E190007573652020203D200045787420667573D6
:10E1A00065202020203D20004C6F636B2066757336
:10E1B000652020203D20004D617220203720323024
:10E1C000313300312E362E3800342E332E350056A2
:10E1D00023202020414444522020206F7020636F70
:10E1E00064652020202020696E73747275637469E1
:10E1F0006F6E2061646472202020496E74657272B3
:10E20000757074006E6F20766563746F7200726A49
:10E210006D702020006A6D70200057686174207056
:10E220006F72743A00506F7274206E6F7420737541
:10E2300070706F72746564004D7573742062652030
:10E2400061206C6574746572002000577269747483
:10E25000696E672045450052656164696E672045B7
:10E26000450045452065727220636E743D00504F35
:10E27000525400303D5A65726F2061646472003FF1
:10E280003D43505520737461747300403D454550C3
:10E29000524F4D207465737400423D426C696E6B41
:10E2A000204C454400453D44756D70204545505215
:10E2B0004F4D00463D44756D7020464C415348001B
:10E2C000483D48656C70004C3D4C69737420492F83
:10E2D0004F20506F72747300513D51756974005234
:10E2E0003D44756D702052414D00563D73686F7707
:10E2F00020696E7465727275707420566563746FF0
:10E30000727300593D506F727420626C696E6B00BD
:10E310002A0011241FBECFEFD1E2DEBFCDBF01E046
:10E320000CBF12E0A0E0B2E0EEE1FDEF03E00BBFB6
:10E3300002C007900D92A030B107D9F712E0A0E01B
:10E34000B2E001C01D92AE30B107E1F70F9460F367
:10E350000D948DFE01E20EBF0FEF0DBF11241FBE05
:10E360000D9460F30D9400F020E030E040ED57E0B4
:10E3700005C0FA013197F1F72F5F3F4F2817390792
:10E38000C0F308959C01260F311DC901A0E0B0E043
:10E390002F5F3F4FABBFFC018791882361F08093D3
:10E3A000C6008091C00086FFFCCF8091C0008064D1
:10E3B0008093C000EACF08958DE08093C6008091DD
:10E3C000C00086FFFCCF8091C00080648093C000B5
:10E3D0008AE08093C6008091C00086FFFCCF8091C8
:10E3E000C00080648093C00008950F94C2F10F9420
:10E3F000DCF10895FC019081992359F09093C600B7
:10E400008091C00086FFFCCF8091C0008064809323
:10E41000C0003196992379F70895282F982F929567
:10E420009F70892F805D8A3308F0895F8093C600D2
:10E430008091C00086FFFCCF8091C00080648093F3
:10E44000C000822F8F70982F905D9A3308F0995FEB
:10E450009093C6008091C00086FFFCCF8091C000E1
:10E4600080648093C00008959C01FB01853691056E
:10E470001CF46330710594F0C90164E670E00F94F8
:10E480002EFE605D7F4F6093C6008091C00086FFC6
:10E49000FCCF8091C00080648093C0002B30310598
:10E4A00014F43297B4F0C90164E670E00F942EFEC4
:10E4B0006AE070E00F942EFE605D7F4F6093C600AF
:10E4C0008091C00086FFFCCF8091C0008064809363
:10E4D000C000C9016AE070E00F942EFEC0968093E0
:10E4E000C6008091C00086FFFCCF8091C000806490
:10E4F0008093C00008951F93182F8EE692EE60E07F
:10E500000F94C2F11093C6008091C00086FFFCCF2B
:10E510008091C00080648093C0000F94DCF11F9153
:10E5200008952F923F924F925F926F927F928F92B7
:10E530009F92AF92BF92CF92DF92EF92FF920F9392
:10E540001F93DF93CF93CDB7DEB762970FB6F894E2
:10E55000DEBF0FBECDBF382E622ECA01DB015C01CB
:10E560006D01772420E2222E2E010894411C511CBB
:10E570008BC081E0A81680E0B80681E0C80680E084
:10E58000D80628F0C601AA27BB270F940DF2BB2797
:10E59000AD2D9C2D8B2D0F940DF28A2D0F940DF225
:10E5A0002092C6008091C00086FFFCCF8091C00001
:10E5B00080648093C0009DE29093C6008091C0006B
:10E5C00086FFFCCF8091C00080648093C0002092C1
:10E5D000C6008091C00086FFFCCF8091C00080649F
:10E5E0008093C00019828601750188249924A1E0D6
:10E5F0003A1651F03A1620F0B2E03B1661F409C029
:10E600000BBFF701779007C0C7010F9477FE782EF4
:10E6100002C0F7017080872D0F940DF22092C60082
:10E620008091C00086FFFCCF8091C0008064809301
:10E63000C000872D8052F401EF70F0708F3520F408
:10E64000E40DF51D708204C0E40DF51D8EE280839B
:10E650000894E11CF11C011D111D0894811C911CE2
:10E6600090E18916910409F0C2CF80E190E0A0E02A
:10E67000B0E0A80EB91ECA1EDB1E198AC2010F9493
:10E68000FAF10F94DCF16A94662009F072CF629679
:10E690000FB6F894DEBF0FBECDBFCF91DF911F91B3
:10E6A0000F91FF90EF90DF90CF90BF90AF909F9031
:10E6B0008F907F906F905F904F903F902F90089534
:10E6C0002F923F924F925F926F927F928F929F9282
:10E6D000AF92BF92CF92DF92EF92FF920F931F9370
:10E6E000DF93CF93CDB7DEB7CD53D1400FB6F894BB
:10E6F000DEBF0FBECDBF01E20EBF0FEF0DBF94B75F
:10E70000F894A89514BE80916000886180936000A1
:10E7100010926000789493FF05C0E0910002F091A0
:10E7200001021995279A2F9A8091C00082608093E8
:10E73000C00080E18093C40088E18093C1000000A4
:10E74000EE24FF24870144E0A42EB12CCC24DD2448
:10E7500024C0C5010197F1F70894E11CF11C011DCB
:10E76000111D21E2E2162EE4F20620E0020720E06D
:10E77000120718F031E0C32ED12CC801B70127ECE5
:10E780003BE140E050E00F9441FE611571058105C9
:10E79000910519F485B1805885B98091C00087FD35
:10E7A00003C0C114D104A9F2A6014F5F5F4FC25E3E
:10E7B000DE4F59834883CE51D140C25EDE4F8881FF
:10E7C0009981CE51D140019711F00D9410FEC05D9A
:10E7D000DE4F19821882C053D14060E0C15DDE4F28
:10E7E0001882CF52D14088249924C35DDE4F19820C
:10E7F0001882CD52D140C05EDE4F188219821A8233
:10E800001B82C052D140CE5CDE4F188219821A8220
:10E810001B82C253D140EE24FF2487010BBFF701B6
:10E8200007911691C45CDE4F19830883CC53D14005
:10E830000D940BFEC25EDE4F28813981CE51D1404E
:10E840002130310509F52091C600C25EDE4F1982E4
:10E850001882CE51D14022C02F5F3F4F4F4F5F4FA4
:10E86000213082E138078AE7480780E0580780F0C6
:10E87000C45CDE4FE881F981CC53D140EF5FFF4F9C
:10E8800019F0EE27FF27099420E030E040E050E047
:10E890008091C00087FFE0CF2091C600C35DDE4FAE
:10E8A00048815981CD52D1404F5F5F4FC35DDE4FEC
:10E8B00059834883CD52D140213209F063C64A3092
:10E8C000510508F05FC60894811C911C53E0851621
:10E8D000910409F059C600E010E018C081E280936D
:10E8E000C6008091C00086FFFCCF8091C00080648C
:10E8F0008093C0002F5F3F4F2931310579F70F9486
:10E90000DCF10F5F1F4F0530110519F020E030E0FA
:10E91000E5CF10920A0210920B0210920C02109294
:10E920000D02109206021092070210920802109235
:10E930000902109202021092030210920402109235
:10E9400005028FEE90EE60E00F94F5F180E191EE1C
:10E9500060E00F94C2F18091C00087FFFCCF9091DE
:10E96000C600903608F09F759032B8F09093C600BC
:10E970008091C00086FFFCCF8091C00080648093AE
:10E98000C000A0E2A093C6008091C00086FFFCCF2B
:10E990008091C00080648093C000983409F4D7C18E
:10E9A0009934B8F4923409F459C1933458F490333B
:10E9B00019F1903308F4E3C59F33A1F1903409F0C5
:10E9C000DEC5BDC0953409F470C1963409F0D7C5D1
:10E9D00098C1923509F42BC2933538F49C3409F46C
:10E9E000F5C1913509F0CBC518C2963509F445C279
:10E9F000993509F0C4C567C483E792EE62E00F94CD
:10EA0000F5F110920602109207021092080210927D
:10EA1000090210920A0210920B0210920C0210923C
:10EA20000D0213C18FE792EE62E00F94F5F18FEEC5
:10EA300090EE60E00F94F5F181E291EE60E00F94CA
:10EA4000C2F187EB91EE60E00F94F5F180E391EE77
:10EA500060E00F94C2F184EE90EE60E00F94F5F167
:10EA60008FE391EE60E00F94C2F186E090E061E008
:10EA700070E00F9434F20F94DCF18DE591EE60E0DC
:10EA80000F94C2F189EC91EE60E00F94F5F18EE401
:10EA900091EE60E00F94C2F183EC91EE60E00F9490
:10EAA000F5F18CE691EE60E00F94C2F18EE10F94E7
:10EAB0000DF288E90F940DF281E00F940DF20F949E
:10EAC000DCF18BE791EE60E00F94C2F119E0E0E039
:10EAD000F0E010935700E4918E2F0F940DF20F94F5
:10EAE000DCF18AE891EE60E00F94C2F1E3E0F0E03F
:10EAF00010935700E4918E2F0F940DF20F94DCF1D8
:10EB000089E991EE60E00F94C2F1E2E0F0E0109349
:10EB10005700E4918E2F0F940DF20F94DCF188EAE8
:10EB200091EE60E00F94C2F1E1E0F0E01093570045
:10EB30001491812F0F940DF20F94DCF107CF8BE825
:10EB400092EE62E00F94F5F18BE492EE60E00F94A8
:10EB5000F5F10F94DCF100E010E019C0C8016F2D51
:10EB60000F947FFEFF2031F489E492EE60E00F9471
:10EB7000C2F10BC0F092C6008091C00086FFFCCFAE
:10EB80008091C00080648093C0000F5F1F4FC80158
:10EB900081519F41A0E0B0E0ABBFFC01F790BAE229
:10EBA000FB1621F0E2E000301E07C1F60F94DCF105
:10EBB0000F94DCF187E592EE60E00F94F5F10F948D
:10EBC000DCF1CC24DD2400E010E01EC0C8010F946D
:10EBD00077FEF82E882331F489E492EE60E00F94FA
:10EBE000C2F10BC08093C6008091C00086FFFCCFAD
:10EBF0008091C00080648093C000FE1419F00894D6
:10EC0000C11CD11C0F5F1F4FC80181519F41A0E063
:10EC1000B0E0ABBFFC01E790FAE2EF1621F022E092
:10EC20000030120799F60F94DCF10F94DCF182E6C4
:10EC300092EE60E00F94C2F1C60161E070E00F94C3
:10EC400034F20F94DCF10F94DCF110920202109276
:10EC50000302109204021092050278CE89E992EE26
:10EC600062E00F94F5F1279A2F9A16C02F9880E052
:10EC700090E0E0EDF7E03197F1F7019684369105E9
:10EC8000C1F72F9A80E090E0E0EDF7E03197F1F7DF
:10EC9000019684369105C1F78091C00087FFE6CFC9
:10ECA0008091C00087FFFCCF64C485EA92EE62E0E9
:10ECB0000F94F5F140910202509103026091040219
:10ECC0007091050281E020E10F9491F2809102029F
:10ECD00090910302A0910402B091050280509F4FD1
:10ECE000AF4FBF4F8093020290930302A0930402A0
:10ECF000B093050280509041A040B04008F426CE69
:10ED0000A4CF83EB92EE62E00F94F5F140910602FE
:10ED100050910702609108027091090280E020E1A1
:10ED20000F9491F28091060290910702A09108023F
:10ED3000B091090280509F4FAF4FBF4F80930602A2
:10ED400090930702A0930802B0930902FFCD80ECD4
:10ED500092EE62E00F94F5F183E792EE60E00F949B
:10ED6000F5F18FE792EE60E00F94F5F18BE892EE0B
:10ED700060E00F94F5F189E992EE60E00F94F5F10F
:10ED800085EA92EE60E00F94F5F183EB92EE60E09D
:10ED90000F94F5F180EC92EE60E00F94F5F187ECC2
:10EDA00092EE60E00F94F5F188ED92EE60E00F9442
:10EDB000F5F18FED92EE60E00F94F5F18AEE92EEB0
:10EDC00060E00F94F5F183E093EEBDCD87EC92EE19
:10EDD00062E00F94F5F181E40F947BF282E40F94EA
:10EDE0007BF283E40F947BF284E40F947BF285E45E
:10EDF0000F947BF286E40F947BF287E40F947BF20E
:10EE000088E40F947BF28AE40F947BF28BE40F94F6
:10EE10007BF28CE40F947BF299CD88ED92EE62E068
:10EE20000F94F5F1772473948824992409C48FED05
:10EE300092EE62E00F94F5F140910A0250910B02BC
:10EE400060910C0270910D0282E020E10F9491F22A
:10EE500080910A0290910B02A0910C02B0910D02D8
:10EE600080509F4FAF4FBF4F80930A0290930B0289
:10EE7000A0930C02B0930D0269CD8AEE92EE62E08F
:10EE80000F94F5F184EE90EE60E00F94F5F18FECC5
:10EE900091EE60E00F94F5F1662477244301CC5D98
:10EEA000DE4F19821882C452D140D401C301B695F5
:10EEB000A79597958795CA5DDE4F88839983AA8326
:10EEC000BB83C652D140CC5DDE4FA881B981C4520C
:10EED000D1401196CC5DDE4FB983A883C452D14096
:10EEE000CD0162E070E00F9434F2B0E2B093C6005E
:10EEF0008091C00086FFFCCF8091C0008064809329
:10EF0000C000EDE2E093C6008091C00086FFFCCF18
:10EF10008091C00080648093C000F0E2F093C6004E
:10EF20008091C00086FFFCCF8091C00080648093F8
:10EF3000C000CA5DDE4FE880F9800A811B81C6529D
:10EF4000D140BB27A12F902F8F2D0F940DF2CA5DBA
:10EF5000DE4F8881C652D1400F940DF2B0E2FB2EF5
:10EF6000F092C6008091C00086FFFCCF8091C00067
:10EF700080648093C0000DE30093C6008091C000C0
:10EF800086FFFCCF8091C00080648093C00010E2B7
:10EF90001093C6008091C00086FFFCCF8091C00016
:10EFA00080648093C0008BBEF3012791C65DDE4F65
:10EFB0002883CA52D140A22EBB24CC24DD2408943D
:10EFC000611C711C811C911C8BBEF3018791282E42
:10EFD0003324442455240894611C711C811C911C09
:10EFE0008BBEF3013791C55DDE4F3883CB52D140E4
:10EFF0000894611C711C811C911C8BBEF30147910C
:10F00000C45DDE4F4883CC52D140ADEFEA2EAFEF66
:10F01000FA2EAFEF0A2FAFEF1A2F6E0C7F1C801E57
:10F02000911E142D032DF22CEE24EA0CFB1C0C1D5A
:10F030001D1D0F940DF220E22093C6008091C000A8
:10F0400086FFFCCF8091C00080648093C000C65DC5
:10F05000DE4F8881CA52D1400F940DF230E23093D6
:10F06000C6008091C00086FFFCCF8091C000806404
:10F070008093C000C45DDE4F8881CC52D1400F9494
:10F080000DF240E24093C6008091C00086FFFCCFA5
:10F090008091C00080648093C000C55DDE4F888190
:10F0A000CB52D1400F940DF250E25093C6008091A4
:10F0B000C00086FFFCCF8091C00080648093C000B8
:10F0C0008FEFE8168FEFF80680E0080780E018075A
:10F0D00031F484E092EE60E00F94C2F1DFC0D80119
:10F0E000C7018070907CA070B0708050904CA040A0
:10F0F000B040D1F52FEF3FE340E050E0E222F322B1
:10F1000004231523CA5DDE4FA880B980CA80DB8046
:10F11000C652D140AE0CBF1CC01ED11EAA0CBB1CD7
:10F12000CC1CDD1C8EE092EE60E00F94C2F1BB2798
:10F13000A12F902F8F2D0F940DF28E2D0F940DF285
:10F1400030E23093C6008091C00086FFFCCF8091F2
:10F15000C00080648093C0004EE34093C60080915D
:10F16000C00086FFFCCF87C08EE09EEFA0E0B0E03D
:10F17000E822F9220A231B239CE0E91694E9F90608
:10F1800090E0090790E0190709F088C0C45DDE4FE0
:10F19000A881CC52D140EA2EFF2400E010E0102FCD
:10F1A0000F2DFE2CEE24C55DDE4FB881CB52D14031
:10F1B000EB0EF11C011D111DD601C501817090706F
:10F1C000A070B070DC0199278827E80EF91E0A1F8D
:10F1D0001B1F20EF30E040E050E0A222B322C42207
:10F1E000D52241E1AA0CBB1CCC1CDD1C4A95D1F7F1
:10F1F000EA0CFB1C0C1D1D1D81E090E0A0E0B0E0BE
:10F20000282239224A225B2235E1220C331C441C7D
:10F21000551C3A95D1F7E20CF31C041D151D57013E
:10F220006801AA0CBB1CCC1CDD1C85E192EE60E0E1
:10F230000F94C2F1C801AA27BB270F940DF2BB2778
:10F24000A12F902F8F2D0F940DF28E2D0F940DF274
:10F2500090E29093C6008091C00086FFFCCF809121
:10F26000C00080648093C000AEE3A093C60080918C
:10F27000C00086FFFCCF8091C00080648093C000F6
:10F28000C601AA27BB270F940DF2BB27AD2D9C2DDD
:10F290008B2D0F940DF28A2D0F940DF20F94DCF14B
:10F2A000CC5DDE4FE881F981C452D140F99709F471
:10F2B0004DCBF4E0EF2EF12C012D112D6E0C7F1CA7
:10F2C000801E911EF2CD83E093EE62E00F94F5F183
:10F2D0008AE192EE60E00F94C2F18091C00087FF56
:10F2E000FCCF1091C6001F751093C6008091C0001E
:10F2F00086FFFCCF8091C00080648093C0000F9493
:10F30000DCF1812F81548A3108F036C1163409F4BA
:10F3100095C0173490F4133409F44EC0143430F40B
:10F320001134F1F0123409F01DC130C0143409F465
:10F3300059C0153409F016C16BC01A3409F4C4C0A1
:10F340001B3438F4173409F48FC0183409F00AC19B
:10F35000A1C01B3409F4D2C01C3409F003C1E8C0B9
:10F360008FEF81B90DC082B1809582B980E090E0C5
:10F37000E0EDF7E03197F1F70196883C9105C1F790
:10F380008091C00087FFEFCF12B8EFC08FEF84B934
:10F390000DC085B1809585B980E090E0E0EDF7E0A3
:10F3A0003197F1F70196883C9105C1F78091C00033
:10F3B00087FFEFCF15B8D9C08FEF87B90DC088B1DF
:10F3C000809588B980E090E0E0EDF7E03197F1F7C3
:10F3D0000196883C9105C1F78091C00087FFEFCF6F
:10F3E00018B8C3C08FEF8AB90DC08BB180958BB9A7
:10F3F00080E090E0E0EDF7E03197F1F70196883C8E
:10F400009105C1F78091C00087FFEFCF1BB8ADC059
:10F410008FEF8DB90DC08EB180958EB980E090E0F0
:10F42000E0EDF7E03197F1F70196883C9105C1F7DF
:10F430008091C00087FFEFCF1EB897C08FEF80BBD1
:10F440000DC081B3809581BB80E090E0E0EDF7E0F6
:10F450003197F1F70196883C9105C1F78091C00082
:10F4600087FFEFCF11BA81C08FEF83BB0DC084B38C
:10F47000809584BB80E090E0E0EDF7E03197F1F714
:10F480000196883C9105C1F78091C00087FFEFCFBE
:10F4900014BA6BC08FEF809301010FC080910201FD
:10F4A00080958093020180E090E0E0EDF7E03197F5
:10F4B000F1F70196883C9105C1F78091C00087FF64
:10F4C000EDCF1092020151C08FEF809304010FC065
:10F4D0008091050180958093050180E090E0E0ED4A
:10F4E000F7E03197F1F70196883C9105C1F78091DB
:10F4F000C00087FFEDCF1092050137C08FEF8093DA
:10F5000007010FC08091080180958093080180E079
:10F5100090E0E0EDF7E03197F1F70196883C910536
:10F52000C1F78091C00087FFEDCF109208011DC088
:10F530008FEF80930A010FC080910B01809580931B
:10F540000B0180E090E0E0EDF7E03197F1F70196F4
:10F55000883C9105C1F78091C00087FFEDCF1092E4
:10F560000B0103C085E292EEEEC98091C00087FFD7
:10F57000FCCF8091C600EAC988E392EEE4C98CE131
:10F5800091EEE1C988249924933011F1943028F444
:10F59000913089F09230B8F408C0953061F195301F
:10F5A000F0F0963009F048C043C02B3109F042C951
:10F5B00091E06BE13FC96227C15DDE4F2883CF52E6
:10F5C000D14092E037C9B22FA0E0622793E032C960
:10F5D000822F90E0A82BB92B622794E02BC92E3004
:10F5E00009F039C3622795E0C05DDE4F19821882A9
:10F5F000C053D1401FC9E1E0F0E0EC0FFD1FC05D3A
:10F60000DE4F08811981C053D140E00FF11F2083E4
:10F610000F5F1F4FC05DDE4F19830883C053D14079
:10F6200062270A171B0709F005C9D80196E002C92D
:10F63000261709F010C303C0973009F0FBC87724E0
:10F640009981933109F412C19431C8F4963009F4C8
:10F65000D8C0973050F4923009F406C1933009F4C1
:10F660006DC0913009F059C253C0913109F477C08F
:10F67000923108F0BBC0903109F04FC2F5C098310B
:10F6800009F487C0993150F4953109F4EFC09531F0
:10F6900008F4C6C1963109F040C2C2C19A3109F4DA
:10F6A0006CC09A3108F491C09B3109F45BC09D3164
:10F6B00009F033C29D81903359F48F81882311F46E
:10F6C0009EE11CC0813011F091E018C098E916C08D
:10F6D000892F807591F0903539F4E0E0F0E089E011
:10F6E0008093570094910AC0983539F4E3E0F0E034
:10F6F00089E080935700949101C090E01A821B82A8
:10F700008D818C831D829E831F8227E030E009C299
:10F710001A8288E08B8381E48C8386E58D8382E581
:10F720008E8389E48F8383E5888780E589878FE5E9
:10F730008A8782E38B872BE030E0F3C18A818139AD
:10F7400041F0823941F0803911F48FE005C080E04A
:10F7500003C082E001C08AE01A828B8344C0772410
:10F76000739482C08D81882311F48EE12CC0813086
:10F7700011F081E028C088E926C01A82E1E0F0E0BB
:10F7800089E08093570084918B831C8224E030E0D1
:10F79000C8C18B81803589F48C81883039F4E2E0EE
:10F7A000F0E089E08093570084910DC0E0E0F0E044
:10F7B00089E080935700849106C0E3E0F0E089E09F
:10F7C0008093570084911A82DFCF8D81836C99E0FA
:10F7D000E1E0F0E0082E90935700E89507B600FCB2
:10F7E000FDCF1A821B8223E030E09BC180EC8A832C
:10F7F000CE5CDE4F188219821A821B82C253D1401E
:10F800008EC18A8190E0A0E0B0E0582F44273327D2
:10F8100022278B8190E0A0E0B0E0DC0199278827C7
:10F82000282B392B4A2B5B2B8D8190E0A0E0B0E098
:10F83000282B392B4A2B5B2B8C8190E0A0E0B0E089
:10F84000BA2FA92F982F8827282B392B4A2B5B2BCF
:10F85000220F331F441F551FC05EDE4F288339839C
:10F860004A835B83C052D1401A8259C13A81C95C34
:10F87000DE4F3883C753D140CA5CDE4F1882C6536F
:10F88000D1408B81C82EDD24CA5CDE4F488159816E
:10F89000C653D140C42AD52A933109F082C0CE5C28
:10F8A000DE4F88819981AA81BB81C253D1408050AB
:10F8B000904CA340B04030F583E0CE5CDE4FE88052
:10F8C000F9800A811B81C253D140F70100935B008C
:10F8D00080935700E89507B600FCFDCFCE5CDE4F65
:10F8E000088119812A813B81C253D14000501F4FAA
:10F8F0002F4F3F4FCE5CDE4F088319832A833B8313
:10F90000C253D140C05EDE4F488159816A817B81FC
:10F91000C052D140DE011B9631E08C9111962C91A2
:10F9200011971296C75CDE4F2883C953D140C85C3B
:10F93000DE4F1882C853D14090E0C85CDE4FE881AA
:10F94000F981C853D1408E2B9F2B0C01FA01609393
:10F950005B0030935700E89511244E5F5F4F6F4F67
:10F960007F4F0EEFE02E0FEFF02ECE0CDF1CC114F8
:10F97000D10499F685E0C05EDE4F088119812A81A5
:10F980003B81C052D140F80120935B008093570027
:10F99000E89507B600FCFDCF81E180935700E8951C
:10F9A00035C0C05EDE4F88819981AA81BB81C0527B
:10F9B000D140B695A795979587957C018601ABE0D8
:10F9C000AA2EB12CAC0EBD1E0BC0D5016D915D01F0
:10F9D000C7010F947FFE0894E11CF11C01501040F8
:10F9E0000115110591F7A60160E070E0440F551F65
:10F9F000661F771FC05EDE4FE880F9800A811B8199
:10FA0000C052D1404E0D5F1D601F711F1A82C05E33
:10FA1000DE4F488359836A837B83C052D1407FC0C5
:10FA2000FA80C55CDE4FF882CB53D140C65CDE4F16
:10FA30001882CA53D1408B81C82EDD24C65CDE4FAC
:10FA400008811981CA53D140C02AD12A1A828981DA
:10FA5000BE016D5F7F4F843121F59601C05EDE4FA0
:10FA6000E880F9800A811B81C052D1400BBFF701A9
:10FA700087919691DB018C9311969C936E5F7F4FDB
:10FA8000D801C7010296A11DB11DC05EDE4F88835B
:10FA90009983AA83BB83C052D14022503040F1F6F3
:10FAA00036C0C05EDE4F288139814A815B81C052F9
:10FAB000D1400894C108D108760100E010E0089414
:10FAC000C11CD11C0894E11CF11C011D111DE20E8A
:10FAD000F31E041F151F21BDBB27A52F942F832FB5
:10FAE00082BD2F5F3F4F4F4F5F4FF89A80B5DB01CC
:10FAF0008D93BD012E153F054007510761F7C05E8C
:10FB0000DE4F288339834A835B83C052D1409601FC
:10FB10002D5F3F4FFB01108204C080EC8A8322E0FE
:10FB200030E08BE18093C6008091C00086FFFCCF5F
:10FB30008091C00080648093C000C15DDE4FF88179
:10FB4000CF52D140F093C6008091C00086FFFCCF19
:10FB50008091C00080648093C000432F3093C60022
:10FB60008091C00086FFFCCF8091C00080648093AC
:10FB7000C000922F2093C6008091C00086FFFCCF6A
:10FB80008091C00080648093C0008EE08093C600A6
:10FB90008091C00086FFFCCF8091C000806480937C
:10FBA000C00065E1C15DDE4FE880CF52D1406E25D7
:10FBB00069276427FE01319610C090819093C6009A
:10FBC0008091C00086FFFCCF31968091C000806498
:10FBD0008093C0006927215030402115310569F715
:10FBE0006093C6008091C00086FFFCCF8091C0006A
:10FBF00080648093C00085B1805885B9772081F4F6
:10FC0000C15DDE4F0881CF52D1400F5FC15DDE4F35
:10FC10000883CF52D14090E0A0E0B0E00D941AF4F8
:10FC200027982F9880E090E020ED37E0F901319798
:10FC3000F1F7019684369105C9F700008091C00064
:10FC40008D7F8093C00081E180935700E895EE2777
:10FC5000FF270994FFCF90E00D941AF497FB092E2B
:10FC600007260AD077FD04D02ED006D000201AF443
:10FC7000709561957F4F0895F6F7909581959F4F08
:10FC80000895A1E21A2EAA1BBB1BFD010DC0AA1FDD
:10FC9000BB1FEE1FFF1FA217B307E407F50720F0F5
:10FCA000A21BB30BE40BF50B661F771F881F991F70
:10FCB0001A9469F760957095809590959B01AC01B9
:10FCC000BD01CF010895AA1BBB1B51E107C0AA1FAC
:10FCD000BB1FA617B70710F0A61BB70B881F991FED
:10FCE0005A95A9F780959095BC01CD010895F99991
:10FCF000FECF92BD81BDF89A992780B50895262F31
:10FD0000F999FECF1FBA92BD81BD20BD0FB6F89400
:0EFD1000FA9AF99A0FBE01960895F894FFCF63
:040000033000E000E9
:00000001FF